:100000000C942A000C943F000C943F000C943F0089
:100010000C943F000C943F000C943F000C943F0064
:100020000C943F000C943F000C943F000C943F0054
:100030000C943F000C943F000C943F000C943F0044
:100040000C943F000C943F000C943F000C943F0034
:100050000C943F0011241FBECFE5D8E0DEBFCDBF1A
:1000600011E0A0E6B0E0E0E1F4E302C005900D92FB
:10007000A038B107D9F70E94CB180C94061A0C943B
:100080000000EF92FF920F931F937B018C0120E001
:1000900030E040E05FE40E94ED0388238CF0C8016B
:1000A000B70120E030E040E05FE40E94B9010E9427
:1000B0004D049B01AC01205030404040504806C0E8
:1000C000C801B7010E944D049B01AC01B901CA01EE
:1000D0001F910F91FF90EF900895A0E0B0E0E3E74B
:1000E000F0E00C94CF19DC012B01FA019C919230C5
:1000F00008F439C1EB018881823008F433C19430AF
:1001000069F4843009F02FC111969C91119789816F
:10011000981709F428C1A8E6B0E025C1843009F495
:1001200021C18230A9F4923009F01DC19A01AD01BC
:1001300088E0EA010990AE01E90109929E0181502F
:10014000C1F7E201898111969C918923818308C1BD
:10015000923009F407C112962D903C901397EB0151
:100160008A819B811496AD90BD90CD90DC901797BD
:10017000EC80FD800E811F819101281B390BB90194
:1001800037FF04C066277727621B730B6032710547
:100190000CF061C0121613066CF537014801062EEB
:1001A00004C096948794779467940A94D2F721E0D8
:1001B00030E040E050E004C0220F331F441F551FC1
:1001C0006A95D2F721503040404050402E213F21C7
:1001D00040235123211531054105510521F021E02E
:1001E00030E040E050E079018A01E628F72808294C
:1001F00019293CC0232BD1F1260E371E35014601AB
:10020000062E04C096948794779467940A94D2F744
:1002100021E030E040E050E004C0220F331F441FD3
:10022000551F6A95D2F721503040404050402A2156
:100230003B214C215D21211531054105510521F05E
:1002400021E030E040E050E059016A01A628B728DB
:10025000C828D9280BC0821593052CF01C01AA24AC
:10026000BB24650103C0EE24FF24870111969C91F5
:10027000D20111968C91981709F445C0992339F051
:10028000A80197012A193B094C095D0906C0A6017E
:1002900095012E193F09400B510B57FD08C01182E3
:1002A0003382228224833583468357831DC081E0B5
:1002B00081833382228288279927DC01821B930B5A
:1002C000A40BB50B84839583A683B7830DC0220F3F
:1002D000331F441F551F24833583468357838281F0
:1002E000938101979383828324813581468157814D
:1002F000DA01C9010197A109B1098F5F9F4FAF4F83
:10030000BF4328F30BC0918333822282EA0CFB1C8B
:100310000C1D1D1DE482F5820683178383E0808314
:10032000248135814681578157FF1AC0C901AA2708
:1003300097FDA095BA2F81709070A070B0705695FF
:10034000479537952795822B932BA42BB52B848328
:100350009583A683B7838281938101969383828359
:10036000DF0101C0D201CD01CDB7DEB7E2E10C94CF
:10037000EB19A0E2B0E0EFEBF1E00C94DB1969833C
:100380007A838B839C832D833E834F835887E9E058
:10039000EE2EF12CEC0EFD1ECE010196B7010E944F
:1003A0003E068E010F5E1F4FCE010596B8010E94DA
:1003B0003E068A8991E089278A8BC701B801AE0180
:1003C000475E5F4F0E946D000E946905A096E6E0BF
:1003D0000C94F719A0E2B0E0E0EFF1E00C94DB1927
:1003E00069837A838B839C832D833E834F835887D5
:1003F000F9E0EF2EF12CEC0EFD1ECE010196B701B7
:100400000E943E068E010F5E1F4FCE010596B80179
:100410000E943E06C701B801AE01475E5F4F0E94D1
:100420006D000E946905A096E6E00C94F719A0E221
:10043000B0E0EDE1F2E00C94CF1969837A838B830D
:100440009C832D833E834F835887CE010196BE0146
:10045000675F7F4F0E943E06CE010596BE016F5E2C
:100460007F4F0E943E069985923088F089898230BC
:10047000C8F0943019F4823051F404C0843029F467
:10048000923081F488E690E0C6C0923049F420E0D2
:100490009A858A89981321E02A87CE010996BBC0E4
:1004A000823049F420E09A858A89981321E02A8BCA
:1004B000CE014196B0C02D843E844F8458886D880B
:1004C0007E888F88988CEE24FF248701AA24BB2481
:1004D000650140E050E060E070E0E0E0F0E0C10184
:1004E00081709070892BE9F0E60CF71C081D191D2E
:1004F0009A01AB012A0D3B1D4C1D5D1D80E090E073
:10050000A0E0B0E0E614F7040805190520F481E046
:1005100090E0A0E0B0E0BA01A901480F591F6A1F9E
:100520007B1FAA0CBB1CCC1CDD1C97FE08C081E005
:1005300090E0A0E0B0E0A82AB92ACA2ADB2A3196C6
:10054000E032F10549F0660C771C881C991C569422
:10055000479437942794C3CFFA85EA892B893C893D
:100560008B859C85280F391F2E5F3F4F17C0CA010E
:1005700081709070892B61F016950795F794E79438
:1005800080E090E0A0E0B0E8E82AF92A0A2B1B2BD3
:1005900076956795579547952F5F3F4F77FDE7CF46
:1005A0000CC0440F551F661F771F17FD4160EE0CEE
:1005B000FF1C001F111F21503040403090E05907B0
:1005C00090E0690790E4790760F32B8F3C8FDB01A3
:1005D000CA018F779070A070B07080349105A1052A
:1005E000B10561F447FD0AC0E114F10401051105EC
:1005F00029F0405C5F4F6F4F7F4F40781A8EFE1797
:1006000011F081E08A8F4D8F5E8F6F8F78A383E02A
:10061000898FCE0149960E946905A096E2E10C946B
:10062000EB19A8E1B0E0E7E1F3E00C94D719698396
:100630007A838B839C832D833E834F835887B9E0D5
:10064000EB2EF12CEC0EFD1ECE010196B7010E949F
:100650003E068E010F5E1F4FCE010596B8010E9427
:100660003E062985223008F47EC03989323010F4E4
:10067000B8017CC08A859A8989278A87243011F03D
:10068000223031F4231709F06EC068E670E06EC0C6
:10069000343039F41D861E861F86188A1C861B86F8
:1006A00004C0323021F484E08987B7015FC02B8514
:1006B0003C858B899C89281B390B3C872B87ED84D3
:1006C000FE840F851889AD88BE88CF88D88CEA143F
:1006D000FB040C051D0540F4EE0CFF1C001F111F50
:1006E000215030403C872B8720E030E040E050E054
:1006F00080E090E0A0E0B0E460E070E0EA14FB0489
:100700000C051D0540F0282B392B4A2B5B2BEA18D2
:10071000FB080C091D09B695A79597958795EE0CD2
:10072000FF1C001F111F6F5F7F4F6F31710531F785
:10073000DA01C9018F779070A070B0708034910594
:10074000A105B10561F427FD0AC0E114F10401051A
:10075000110529F0205C3F4F4F4F5F4F20782D87C8
:100760003E874F87588BBE01675F7F4FCB010E944A
:1007700069056896EAE00C94F319A8E1B0E0E3ECAF
:10078000F3E00C94DB1969837A838B839C832D833C
:100790003E834F83588789E0E82EF12CEC0EFD1E36
:1007A000CE010196B7010E943E068E010F5E1F4FDB
:1007B000CE010596B8010E943E068985823040F040
:1007C0008989823028F0C701B8010E94B60601C0AD
:1007D0008FEF6896E6E00C94F719A8E1B0E0E3EF3C
:1007E000F3E00C94DB1969837A838B839C832D83DC
:1007F0003E834F83588789E0E82EF12CEC0EFD1ED6
:10080000CE010196B7010E943E068E010F5E1F4F7A
:10081000CE010596B8010E943E068985823040F0DF
:100820008989823028F0C701B8010E94B60601C04C
:100830008FEF6896E6E00C94F719A8E1B0E0E3E2E8
:10084000F4E00C94DB1969837A838B839C832D837A
:100850003E834F83588789E0E82EF12CEC0EFD1E75
:10086000CE010196B7010E943E068E010F5E1F4F1A
:10087000CE010596B8010E943E068985823040F07F
:100880008989823028F0C701B8010E94B60601C0EC
:1008900081E06896E6E00C94F719ACE0B0E0E3E59F
:1008A000F4E00C94DF1969837A838B839C83CE01F7
:1008B0000196BE016B5F7F4F0E943E068D818230A4
:1008C00061F1823050F1843021F48E81882351F11E
:1008D0002EC02F81388537FD20C06E812F31310524
:1008E0001CF06623F9F023C08EE190E0821B930B8D
:1008F00029853A854B855C8504C056954795379583
:1009000027958A95D2F76623B1F05095409530959A
:1009100021953F4F4F4F5F4F0EC020E030E040E049
:1009200050E009C02FEF3FEF4FEF5FE704C020E03A
:1009300030E040E050E8B901CA012C96E2E00C94A6
:10094000FB19A8E0B0E0E7EAF4E00C94D7197B01CA
:100950008C01611571058105910519F482E0898387
:1009600060C083E089838EE1C82ED12CDC82CB82EB
:10097000ED82FE820F831887C801B7010E941A0515
:10098000FC013197F7FF3BC0222733272E1B3F0B7B
:1009900057016801022E04C0D694C794B794A79457
:1009A0000A94D2F740E050E060E070E081E090E02F
:1009B000A0E0B0E004C0880F991FAA1FBB1F2A95B2
:1009C000D2F70197A109B1098E219F21A023B1235C
:1009D0000097A105B10521F041E050E060E070E032
:1009E0004A295B296C297D294D835E836F83788733
:1009F0008EE190E08E1B9F0B9C838B8312C03097FF
:100A000081F00E2E04C0EE0CFF1C001F111F0A9473
:100A1000D2F7ED82FE820F831887CE1ADF0ADC82BE
:100A2000CB821A82CE0101960E9469052896EAE0DF
:100A30000C94F319EF92FF920F931F937B018C019B
:100A400080E0E81680E0F80681E0080780E01807FB
:100A500088F48FEFE816F1040105110531F028F054
:100A600088E090E0A0E0B0E017C080E090E0A0E077
:100A7000B0E012C080E0E81680E0F80680E00807E9
:100A800081E0180728F088E190E0A0E0B0E004C021
:100A900080E190E0A0E0B0E020E230E040E050E013
:100AA000281B390B4A0B5B0B04C016950795F7946E
:100AB000E7948A95D2F7F701E059FF4F8081281B10
:100AC000310941095109C9011F910F91FF90EF9020
:100AD0000895DF92EF92FF920F931F93FC01E48041
:100AE000F58006811781D1808081823048F480E0D2
:100AF00090E0A0E1B0E0E82AF92A0A2B1B2BA5C060
:100B0000843009F49FC0823021F4EE24FF24870151
:100B100005C0E114F1040105110519F4E0E0F0E06D
:100B200096C0628173819FEF623879070CF05BC0D9
:100B300022E83FEF261B370B2A3131052CF020E04D
:100B400030E040E050E02AC0B801A701022E04C006
:100B500076956795579547950A94D2F781E090E08E
:100B6000A0E0B0E004C0880F991FAA1FBB1F2A9500
:100B7000D2F70197A109B1098E219F21A023B123AA
:100B80000097A105B10521F081E090E0A0E0B0E080
:100B90009A01AB01282B392B4A2B5B2BDA01C901B7
:100BA0008F779070A070B07080349105A105B10569
:100BB00039F427FF09C0205C3F4F4F4F5F4F04C0FF
:100BC000215C3F4F4F4F5F4FE0E0F0E02030A0E06E
:100BD0003A07A0E04A07A0E45A0710F0E1E0F0E08D
:100BE00079018A0127C06038710564F5FB01E1587D
:100BF000FF4FD801C7018F779070A070B07080341C
:100C00009105A105B10539F4E7FE0DC080E490E03F
:100C1000A0E0B0E004C08FE390E0A0E0B0E0E80E18
:100C2000F91E0A1F1B1F17FF05C016950795F7949D
:100C3000E794319687E016950795F794E7948A959F
:100C4000D1F705C0EE24FF248701EFEFF0E06E2F0F
:100C5000679566276795902F9F77D794DD24D79463
:100C60008E2F8695492F462B582F5D29B701CA0133
:100C70001F910F91FF90EF90DF900895FC01DB0131
:100C8000408151812281622F6F7770E0221F2227DD
:100C9000221F9381892F880F822B282F30E0991FE4
:100CA0009927991F11969C93119721153105A9F544
:100CB000411551056105710511F482E037C082E8E4
:100CC0009FEF13969C938E9312979A01AB0167E066
:100CD000220F331F441F551F6A95D1F783E08C9371
:100CE0000DC0220F331F441F551F12968D919C91EA
:100CF0001397019713969C938E931297203080E060
:100D0000380780E0480780E4580758F314962D937D
:100D10003D934D935C93179708952F3F310579F4D8
:100D2000411551056105710519F484E08C9308950E
:100D300064FF03C081E08C9312C01C9210C02F5737
:100D4000304013963C932E93129783E08C9387E068
:100D5000440F551F661F771F8A95D1F7706414964C
:100D60004D935D936D937C93179708951F93DC01CA
:100D7000FB019C91923008F447C08081823008F4D6
:100D800043C0943051F411961C91843099F58181BF
:100D9000682F70E0611B71093FC0843021F09230F0
:100DA00031F48230B9F18181882389F12DC0119607
:100DB0001C9111978230F1F081811817D9F41296A5
:100DC0002D913C911397828193818217930794F020
:100DD00028173907BCF014968D919D910D90BC9108
:100DE000A02D2481358146815781281739074A076C
:100DF0005B0718F4112341F00AC082179307A40778
:100E0000B50740F4112319F061E070E005C06FEF01
:100E10007FEF02C060E070E0CB011F910895DF9387
:100E2000CF9300D000D00F92CDB7DEB78A836B830B
:100E300019828A81282F30E03D832C838C819D810B
:100E400081309105D1F02C813D81223031052CF487
:100E50008C819D81009761F01FC02C813D812230E3
:100E6000310581F08C819D818330910581F014C022
:100E7000EAE3F0E08B81808311C0E7E3F0E08B814F
:100E800080830CC0E4E3F0E08B81808307C0E1E362
:100E9000F0E08B81808302C081E0898389810F909B
:100EA0000F900F900F900F90CF91DF910895DF93E7
:100EB000CF9300D000D00F92CDB7DEB78A836B837B
:100EC00019828A81282F30E03D832C838C819D817B
:100ED00081309105D1F02C813D81223031052CF4F7
:100EE0008C819D81009761F01FC02C813D81223053
:100EF000310581F08C819D818330910581F014C092
:100F0000EBE3F0E08B81808311C0E8E3F0E08B81BC
:100F100080830CC0E5E3F0E08B81808307C0E2E3CF
:100F2000F0E08B81808302C081E0898389810F900A
:100F30000F900F900F900F90CF91DF910895DF9356
:100F4000CF9300D000D000D0CDB7DEB78A837C83AA
:100F50006B8319828A81282F30E03E832D838D8117
:100F60009E8181309105E1F02D813E812230310555
:100F70002CF48D819E81009761F027C02D813E81E8
:100F800022303105A1F08D819E8183309105B1F031
:100F90001CC0E9E3F0E08081EB81FC81808317C015
:100FA000E6E3F0E08081EB81FC81808310C0E3E325
:100FB000F0E08081EB81FC81808309C0E0E3F0E018
:100FC0008081EB81FC81808302C081E089838981FB
:100FD00026960FB6F894DEBF0FBECDBFCF91DF913E
:100FE0000895DF93CF93CDB7DEB728970FB6F89467
:100FF000DEBF0FBECDBF8A836B834C8319828B818A
:10100000883008F0F4C08C81882309F077C08A8189
:10101000282F30E038872F838F8198858130910584
:1010200059F12F813885223031052CF48F81988534
:10103000009769F060C02F8138852230310589F131
:101040008F8198858330910509F440C054C0AAE38C
:10105000B0E0EAE3F0E08081482F8B81282F30E078
:1010600081E090E0022E02C0880F991F0A94E2F7F7
:10107000809584238C93BDC0A7E3B0E0E7E3F0E064
:101080008081482F8B81282F30E081E090E0022E74
:1010900002C0880F991F0A94E2F7809584238C93ED
:1010A000A8C0A4E3B0E0E4E3F0E08081482F8B81A6
:1010B000282F30E081E090E0022E02C0880F991FB7
:1010C0000A94E2F7809584238C9393C0A1E3B0E067
:1010D000E1E3F0E08081482F8B81282F30E081E030
:1010E00090E0022E02C0880F991F0A94E2F78095C3
:1010F00084238C937EC081E089837BC08C81813086
:1011000009F072C08A81282F30E03E832D838D81C3
:101110009E818130910549F12D813E81223031053A
:101120002CF48D819E81009761F05BC02D813E8102
:101130002230310571F18D819E8183309105E9F175
:1011400050C0AAE3B0E0EAE3F0E08081482F8B8151
:10115000282F30E081E090E0022E02C0880F991F16
:101160000A94E2F7842B8C9344C0A7E3B0E0E7E352
:10117000F0E08081482F8B81282F30E081E090E0E3
:10118000022E02C0880F991F0A94E2F7842B8C93D9
:1011900030C0A4E3B0E0E4E3F0E08081482F8B812D
:1011A000282F30E081E090E0022E02C0880F991FC6
:1011B0000A94E2F7842B8C931CC0A1E3B0E0E1E336
:1011C000F0E08081482F8B81282F30E081E090E093
:1011D000022E02C0880F991F0A94E2F7842B8C9389
:1011E00008C081E0898305C081E0898302C081E075
:1011F0008983898128960FB6F894DEBF0FBECDBFD4
:10120000CF91DF910895DF93CF93CDB7DEB72897C5
:101210000FB6F894DEBF0FBECDBF8A836B834C83BD
:1012200019828B81883008F0F4C08C81882309F002
:1012300077C08A81282F30E038872F838F81988567
:101240008130910559F12F813885223031052CF4F8
:101250008F819885009769F060C02F813885223092
:10126000310589F18F8198858330910509F440C05B
:1012700054C0ABE3B0E0EBE3F0E08081482F8B811A
:10128000282F30E081E090E0022E02C0880F991FE5
:101290000A94E2F7809584238C93BDC0A8E3B0E064
:1012A000E8E3F0E08081482F8B81282F30E081E057
:1012B00090E0022E02C0880F991F0A94E2F78095F1
:1012C00084238C93A8C0A5E3B0E0E5E3F0E080813F
:1012D000482F8B81282F30E081E090E0022E02C061
:1012E000880F991F0A94E2F7809584238C9393C00A
:1012F000A2E3B0E0E2E3F0E08081482F8B81282F69
:1013000030E081E090E0022E02C0880F991F0A941D
:10131000E2F7809584238C937EC081E089837BC033
:101320008C81813009F072C08A81282F30E03E83A1
:101330002D838D819E818130910549F12D813E81E2
:10134000223031052CF48D819E81009761F05BC0C5
:101350002D813E812230310571F18D819E81833056
:101360009105E9F150C0ABE3B0E0EBE3F0E0808140
:10137000482F8B81282F30E081E090E0022E02C0C0
:10138000880F991F0A94E2F7842B8C9344C0A8E33A
:10139000B0E0E8E3F0E08081482F8B81282F30E037
:1013A00081E090E0022E02C0880F991F0A94E2F7B4
:1013B000842B8C9330C0A5E3B0E0E5E3F0E08081BE
:1013C000482F8B81282F30E081E090E0022E02C070
:1013D000880F991F0A94E2F7842B8C931CC0A2E318
:1013E000B0E0E2E3F0E08081482F8B81282F30E0ED
:1013F00081E090E0022E02C0880F991F0A94E2F764
:10140000842B8C9308C081E0898305C081E08983A7
:1014100002C081E08983898128960FB6F894DEBFE7
:101420000FBECDBFCF91DF910895DF93CF93CDB79E
:10143000DEB727970FB6F894DEBF0FBECDBF8A8305
:101440006B835D834C8319828B81883008F074C074
:101450008A81282F30E03F832E834E815F81413087
:10146000510559F18E819F818230910534F42E818E
:101470003F812115310569F05CC04E815F814230AA
:10148000510579F18E819F818330910509F43DC02A
:1014900050C0E9E3F0E08081282F30E08B81882F75
:1014A00090E0A90102C0559547958A95E2F7CA01D7
:1014B0008170EC81FD81808341C0E6E3F0E08081B2
:1014C000282F30E08B81882F90E0A90102C055952C
:1014D00047958A95E2F7CA018170EC81FD8180838E
:1014E0002DC0E3E3F0E08081282F30E08B81882F4E
:1014F00090E0A90102C0559547958A95E2F7CA0187
:101500008170EC81FD81808319C0E0E3F0E080818F
:10151000282F30E08B81882F90E0A90102C05595DB
:1015200047958A95E2F7CA018170EC81FD8180833D
:1015300005C081E0898302C081E089838981279683
:101540000FB6F894DEBF0FBECDBFCF91DF910895E7
:10155000DF93CF93CDB7DEB7A6E2B0E0E6E2F0E0EE
:10156000808180688C93A7E2B0E0E7E2F0E08081C0
:1015700080648C93A7E2B0E0E7E2F0E080818F77AF
:101580008C93A7E2B0E0E7E2F0E080818F7D8C935E
:10159000A6E2B0E0E6E2F0E080818F7D8C93A6E2E7
:1015A000B0E0E6E2F0E0808181608C93A6E2B0E0FA
:1015B000E6E2F0E080818D7F8C93A6E2B0E0E6E287
:1015C000F0E0808184608C93CF91DF910895DF9368
:1015D000CF9300D00F92CDB7DEB78B83A7E2B0E0F8
:1015E000E7E2F0E08081807E8C93A7E2B0E0E7E262
:1015F000F0E090818B81892B8C93A6E2B0E0E6E24B
:10160000F0E0808180648C93E6E2F0E08081829556
:101610008F70882F90E0817090700097A9F3A6E2F8
:10162000B0E0E6E2F0E0808180618C93E4E2F0E0FB
:101630008081882F90E09A838983E5E2F0E08081C1
:10164000882F90E0982F88279C0189819A81822B8E
:10165000932B9A83898389819A810F900F900F90A1
:10166000CF91DF9108950F931F93DF93CF93CDB761
:10167000DEB7CD54D0400FB6F894DEBF0FBECDBF5D
:10168000FE01E75BFF4F91838083FE01E55BFF4F27
:101690006083FE01E45BFF4F4083FE01E35BFF4F8D
:1016A0002083FE01E55BFF4F8081882F90E0880F4B
:1016B000991F880F991F880F991FFE01E85BFF4F44
:1016C0008083FE01ED5BFF4F80E090E0A0E8BFE388
:1016D00080839183A283B3838E01015C1F4FFE013F
:1016E000ED5BFF4F608171818281938120E030E06A
:1016F0004AEF54E40E941702DC01CB01F801808319
:101700009183A283B383FE01FF9660817181828100
:10171000938120E030E040E85FE30E941D048823CD
:101720002CF481E090E09EAF8DAF46C0FE01FF96A5
:10173000608171818281938120E03FEF4FE757E420
:101740000E94BD03181664F5FE01ED5BFF4F60813A
:1017500071818281938120E030E040E251E40E9477
:101760001702DC01CB01BC01CD010E944100DC016C
:10177000CB019EAF8DAF0FC088EC90E09CAF8BAFDC
:101780008BAD9CAD0197F1F79CAF8BAF8DAD9EAD4E
:1017900001979EAF8DAF8DAD9EAD009769F716C0D6
:1017A000FE01FF9660817181828193810E944100D8
:1017B000DC01CB019EAF8DAF8DAD9EAD9AAF89AFF1
:1017C00089AD9AAD0197F1F79AAF89AFFE01E85B59
:1017D000FF4F8081805C0E94960E80E090E0A0E840
:1017E000BFE38DAB9EABAFABB8AF6DA97EA98FA9A0
:1017F00098AD20E030E04AEF54E40E941702DC018B
:10180000CB0189AB9AABABABBCAB69A97AA98BA96D
:101810009CA920E030E040E85FE30E941D0488239B
:101820002CF481E090E098AB8FA73FC069A97AA91A
:101830008BA99CA920E03FEF4FE757E40E94BD032E
:1018400018164CF56DA97EA98FA998AD20E030E05F
:1018500040E251E40E941702DC01CB01BC01CD0142
:101860000E944100DC01CB0198AB8FA70FC088EC30
:1018700090E09EA78DA78DA59EA50197F1F79EA745
:101880008DA78FA598A9019798AB8FA78FA598A929
:10189000009769F714C069A97AA98BA99CA90E942D
:1018A0004100DC01CB0198AB8FA78FA598A99CA71D
:1018B0008BA78BA59CA50197F1F79CA78BA7FE0191
:1018C000E95BFF4F10828CC0FE01E95BFF4F808116
:1018D000282F30E0FE01E75BFF4F80819181FC0102
:1018E000E20FF31F80810E94F70D80E090E0A0E8F6
:1018F000BFE38FA398A7A9A7BAA76FA178A589A5C9
:101900009AA520E030E04AEF54E40E941702DC017F
:10191000CB018BA39CA3ADA3BEA36BA17CA18DA186
:101920009EA120E030E040E85FE30E941D04882390
:101930002CF481E090E09AA389A33FC06BA17CA125
:101940008DA19EA120E03FEF4FE757E40E94BD0329
:1019500018164CF56FA178A589A59AA520E030E06E
:1019600040E251E40E941702DC01CB01BC01CD0131
:101970000E944100DC01CB019AA389A30FC088EC2F
:1019800090E098A38F8F8F8D98A10197F1F798A37E
:101990008F8F89A19AA101979AA389A389A19AA15E
:1019A000009769F714C06BA17CA18DA19EA10E9434
:1019B0004100DC01CB019AA389A389A19AA19E8F42
:1019C0008D8F8D8D9E8D0197F1F79E8F8D8FDE010E
:1019D000A95BBF4FFE01E95BFF4F80818F5F8C9356
:1019E000FE01E95BFF4F8081883008F46DCFFE0176
:1019F000E45BFF4FDE01A35BBF4F80816C910E94CF
:101A00001A1180E090E0A0E8BFE3898F9A8FAB8F36
:101A1000BC8F698D7A8D8B8D9C8D20E030E04AEFF4
:101A200054E40E941702DC01CB018D8B9E8BAF8B9F
:101A3000B88F6D897E898F89988D20E030E040E8ED
:101A40005FE30E941D0488232CF481E090E09C8BCE
:101A50008B8B3FC06D897E898F89988D20E03FEF09
:101A60004FE757E40E94BD0318164CF5698D7A8D37
:101A70008B8D9C8D20E030E040E251E40E94170203
:101A8000DC01CB01BC01CD010E944100DC01CB0196
:101A90009C8B8B8B0FC088EC90E09A8B898B89890B
:101AA0009A890197F1F79A8B898B8B899C89019789
:101AB0009C8B8B8B8B899C89009769F714C06D89EF
:101AC0007E898F89988D0E944100DC01CB019C8B1F
:101AD0008B8B8B899C89988B8F878F8598890197B1
:101AE000F1F7988B8F87FE01E55BFF4F80810E94A5
:101AF000F70D80E090E0A0E8BFE38B879C87AD877F
:101B0000BE876B857C858D859E8520E030E04AEF21
:101B100054E40E941702DC01CB018F839887A987C8
:101B2000BA876F81788589859A8520E030E040E822
:101B30005FE30E941D0488232CF481E090E09E83E3
:101B40008D833FC06F81788589859A8520E03FEF3E
:101B50004FE757E40E94BD0318164CF56B857C8552
:101B60008D859E8520E030E040E251E40E9417021E
:101B7000DC01CB01BC01CD010E944100DC01CB01A5
:101B80009E838D830FC088EC90E09C838B838B8138
:101B90009C810197F1F79C838B838D819E810197B6
:101BA0009E838D838D819E81009769F714C06F811C
:101BB000788589859A850E944100DC01CB019E834E
:101BC0008D838D819E819A83898389819A810197F2
:101BD000F1F79A838983C35BDF4F0FB6F894DEBFBA
:101BE0000FBECDBFCF91DF911F910F910895DF936D
:101BF000CF93CDB7DEB72F970FB6F894DEBF0FBEE9
:101C0000CDBF8F8781E062E041E00E94030981E05F
:101C100061E040E00E94030982E06F850E9457075F
:101C200081E060E041E00E94030980E090E0A0E0F4
:101C3000B0E48B879C87AD87BE876B857C858D855F
:101C40009E8520E030E04AEF54E40E941702DC0158
:101C5000CB018F839887A987BA876F81788589851B
:101C60009A8520E030E040E85FE30E941D0488236D
:101C70002CF481E090E09E838D833FC06F81788556
:101C800089859A8520E03FEF4FE757E40E94BD0326
:101C900018164CF56B857C858D859E8520E030E09F
:101CA00040E251E40E941702DC01CB01BC01CD01EE
:101CB0000E944100DC01CB019E838D830FC088EC24
:101CC00090E09C838B838B819C810197F1F79C83AF
:101CD0008B838D819E8101979E838D838D819E81D3
:101CE000009769F714C06F81788589859A850E946D
:101CF0004100DC01CB019E838D838D819E819A837F
:101D0000898389819A810197F1F79A83898381E098
:101D100060E040E00E94030980E02F960FB6F8943F
:101D2000DEBF0FBECDBFCF91DF910895DF93CF937C
:101D3000CDB7DEB72F970FB6F894DEBF0FBECDBF7D
:101D40008F8781E062E040E00E94030981E061E06A
:101D500040E00E94030982E06F850E94570781E0FE
:101D600060E041E00E94030980E090E0A0E0B0E480
:101D70008B879C87AD87BE876B857C858D859E858F
:101D800020E030E04AEF54E40E941702DC01CB016E
:101D90008F839887A987BA876F81788589859A8587
:101DA00020E030E040E85FE30E941D0488232CF42B
:101DB00081E090E09E838D833FC06F817885898527
:101DC0009A8520E03FEF4FE757E40E94BD031816C5
:101DD0004CF56B857C858D859E8520E030E040E26A
:101DE00051E40E941702DC01CB01BC01CD010E942D
:101DF0004100DC01CB019E838D830FC088EC90E015
:101E00009C838B838B819C810197F1F79C838B83CF
:101E10008D819E8101979E838D838D819E81009708
:101E200069F714C06F81788589859A850E94410081
:101E3000DC01CB019E838D838D819E819A83898372
:101E400089819A810197F1F79A83898381E060E023
:101E500040E00E94030980E02F960FB6F894DEBFA1
:101E60000FBECDBFCF91DF910895DF93CF93CDB754
:101E7000DEB72E970FB6F894DEBF0FBECDBF82E05F
:101E80006FEF0E940F0781E060E041E00E94F107E0
:101E900081E062E041E00E94F10781E061E041E021
:101EA0000E94F10780E090E0A0E2B2E48B879C877B
:101EB000AD87BE876B857C858D859E8520E030E073
:101EC0004AEF54E40E941702DC01CB018F8398870C
:101ED000A987BA876F81788589859A8520E030E067
:101EE00040E85FE30E941D0488232CF481E090E029
:101EF0009E838D833FC06F81788589859A8520E098
:101F00003FEF4FE757E40E94BD0318164CF56B8571
:101F10007C858D859E8520E030E040E251E40E9482
:101F20001702DC01CB01BC01CD010E944100DC01A4
:101F3000CB019E838D830FC088EC90E09C838B83C4
:101F40008B819C810197F1F79C838B838D819E818E
:101F500001979E838D838D819E81009769F714C0C0
:101F60006F81788589859A850E944100DC01CB01CB
:101F70009E838D838D819E819A83898389819A81B5
:101F80000197F1F79A83898388E30E94960E8EE089
:101F90000E94960E81E00E94960E2E960FB6F8943F
:101FA000DEBF0FBECDBFCF91DF910895DF93CF93FA
:101FB000CDB7DEB76F970FB6F894DEBF0FBECDBFBB
:101FC0009F8F8E8F1D8E83E060E00E941A1180C06B
:101FD0008D8D282F30E08E8D9F8DFC01E20FF31F39
:101FE00080810E94F70D8D8D8F5F8D8F80E090E056
:101FF000A6E1B3E4898F9A8FAB8FBC8F698D7A8D00
:102000008B8D9C8D20E030E04AEF54E40E94170253
:10201000DC01CB018D8B9E8BAF8BB88F6D897E8958
:102020008F89988D20E030E040E85FE30E941D0436
:1020300088232CF481E090E09C8B8B8B3FC06D89D2
:102040007E898F89988D20E03FEF4FE757E40E940B
:10205000BD0318164CF5698D7A8D8B8D9C8D20E013
:1020600030E040E251E40E941702DC01CB01BC01E8
:10207000CD010E944100DC01CB019C8B8B8B0FC0FA
:1020800088EC90E09A8B898B89899A890197F1F77E
:102090009A8B898B8B899C8901979C8B8B8B8B89E5
:1020A0009C89009769F714C06D897E898F89988D06
:1020B0000E944100DC01CB019C8B8B8B8B899C891E
:1020C000988B8F878F8598890197F1F7988B8F87E9
:1020D0008D8D282F30E08E8D9F8DFC01E20FF31F38
:1020E0008081882309F074CF0E94191380E090E06A
:1020F000A8ECB2E48B879C87AD87BE876B857C8517
:102100008D859E8520E030E04AEF54E40E9417025E
:10211000DC01CB018F839887A987BA876F81788587
:1021200089859A8520E030E040E85FE30E941D0445
:1021300088232CF481E090E09E838D833FC06F81E3
:10214000788589859A8520E03FEF4FE757E40E9424
:10215000BD0318164CF56B857C858D859E8520E02A
:1021600030E040E251E40E941702DC01CB01BC01E7
:10217000CD010E944100DC01CB019E838D830FC005
:1021800088EC90E09C838B838B819C810197F1F795
:102190009C838B838D819E8101979E838D838D810E
:1021A0009E81009769F714C06F81788589859A852B
:1021B0000E944100DC01CB019E838D838D819E8135
:1021C0009A83898389819A810197F1F79A83898318
:1021D0006F960FB6F894DEBF0FBECDBFCF91DF91E3
:1021E0000895DF93CF9300D00F92CDB7DEB79B83D6
:1021F0008A8319820EC08981282F30E08A819B81D1
:10220000FC01E20FF31F80810E94F70D89818F5F2F
:1022100089838981282F30E08A819B81FC01E20F2C
:10222000F31F8081882339F70F900F900F90CF9183
:10223000DF910895DF93CF9300D00F92CDB7DEB733
:102240008A836B838B81882319F48A81898306C0F2
:102250008B81813019F48A81805C898389818058DF
:102260000E94960E0F900F900F90CF91DF910895DE
:10227000DF93CF93CDB7DEB781E00E94960ECF916A
:10228000DF910895DF93CF93CDB7DEB780E00E9452
:10229000960ECF91DF9108950F931F93DF93CF9305
:1022A000CDB7DEB7A7970FB6F894DEBF0FBECDBF90
:1022B0006CA37DA38EA39FA31B828FE061E00E948D
:1022C0001A118CA19DA1AEA1BFA10097A105B105D6
:1022D00031F480E30E94F70D0E944211C5C08CA129
:1022E0009DA1AEA1BFA1BB230CF099C08CA19DA163
:1022F000AEA1BFA1B095A095909581959F4FAF4F8E
:10230000BF4F8CA39DA3AEA3BFA32FC08B81082F6B
:10231000112707FD10958CA19DA1AEA1BFA12AE0B8
:1023200030E040E050E0BC01CD010E949219DC0198
:10233000CB01282FCE010496FC01E00FF11F208372
:102340008CA19DA1AEA1BFA12AE030E040E050E009
:10235000BC01CD010E949219DA01C9018CA39DA391
:10236000AEA3BFA38B818F5F8B838CA19DA1AEA1F8
:10237000BFA10097A105B10549F61A8211C08A8153
:10238000282F30E0CE010496FC01E20FF31F80817C
:10239000805D0E94F70D0E9442118A818F5F8A83BF
:1023A0008A81282F30E08B81992787FD90958217AD
:1023B00093072CF78DE20E94F70D0E94421154C042
:1023C0008B818F5F8B838B81082F112707FD1095E1
:1023D0008CA19DA1AEA1BFA12AE030E040E050E079
:1023E000BC01CD010E949219DC01CB01282FCE0146
:1023F0000496FC01E00FF11F20838CA19DA1AEA1EA
:10240000BFA12AE030E040E050E0BC01CD010E94D5
:102410009219DA01C9018CA39DA3AEA3BFA38CA11D
:102420009DA1AEA1BFA10097A105B10549F61982F2
:1024300011C08981282F30E0CE010496FC01E20F03
:10244000F31F8081805D0E94F70D0E9442118981F7
:102450008F5F89838981282F30E08B81992787FDC1
:102460009095821793072CF7A7960FB6F894DEBFC6
:102470000FBECDBFCF91DF911F910F9108950F93A4
:102480001F93DF93CF93CDB7DEB7A5970FB6F89420
:10249000DEBF0FBECDBF6AA37BA38CA39DA3198211
:1024A0008AA19BA1ACA1BDA10097A105B10521F412
:1024B00080E30E94F70D9BC08AA19BA1ACA1BDA1A6
:1024C000BB230CF07AC08AA19BA1ACA1BDA1B095A1
:1024D000A095909581959F4FAF4FBF4F8AA39BA327
:1024E000ACA3BDA38DE20E94F70D2FC08981082FF8
:1024F000112707FD10958AA19BA1ACA1BDA12AE0DF
:1025000030E040E050E0BC01CD010E949219DC01B6
:10251000CB01282FCE010296FC01E00FF11F208392
:102520008AA19BA1ACA1BDA12AE030E040E050E02F
:10253000BC01CD010E949219DA01C9018AA39BA3B3
:10254000ACA3BDA389818F5F89838AA19BA1ACA124
:10255000BDA10097A105B10549F649C089818F5FEA
:1025600089838981082F112707FD10958AA19BA1D6
:10257000ACA1BDA12AE030E040E050E0BC01CD01BB
:102580000E949219DC01CB01282FCE010296FC019A
:10259000E00FF11F20838AA19BA1ACA1BDA12AE07D
:1025A00030E040E050E0BC01CD010E949219DA0118
:1025B000C9018AA39BA3ACA3BDA38AA19BA1ACA183
:1025C000BDA10097A105B10549F611C08981282F49
:1025D000332727FD3095CE010296FC01E20FF31F51
:1025E0008081805D0E94F70D898181508983898176
:1025F000181664F3A5960FB6F894DEBF0FBECDBFD4
:10260000CF91DF911F910F910895DF93CF93CDB7B5
:10261000DEB781E00E94960ECF91DF910895DF939F
:10262000CF93CDB7DEB782E00E94960ECF91DF91B7
:102630000895DF93CF93CDB7DEB78CE10E94960E5D
:10264000CF91DF910895DF93CF93CDB7DEB788E1C7
:102650000E94960ECF91DF910895DF93CF93CDB76F
:10266000DEB763970FB6F894DEBF0FBECDBF9B8B6E
:102670008A8B198A82E0888B1F868FC08989823075
:1026800028F0888960E00E941A1104C0888961E0FE
:102690000E941A118989282F30E08A899B89FC01C0
:1026A000E20FF31F80810E94F70D89898F5F898B6C
:1026B00088898F5F888B80E090E0A6E1B3E48B8708
:1026C0009C87AD87BE876B857C858D859E8520E048
:1026D00030E04AEF54E40E941702DC01CB018F8303
:1026E0009887A987BA876F81788589859A8520E040
:1026F00030E040E85FE30E941D0488232CF481E071
:1027000090E09E838D833FC06F81788589859A850F
:1027100020E03FEF4FE757E40E94BD0318164CF549
:102720006B857C858D859E8520E030E040E251E41C
:102730000E941702DC01CB01BC01CD010E944100C7
:10274000DC01CB019E838D830FC088EC90E09C83DD
:102750008B838B819C810197F1F79C838B838D8187
:102760009E8101979E838D838D819E81009769F75D
:1027700014C06F81788589859A850E944100DC01AB
:10278000CB019E838D838D819E819A8389838981EC
:102790009A810197F1F79A8389838989282F30E0FC
:1027A0008A899B89FC01E20FF31F8081882321F035
:1027B0008F858A3008F462CF63960FB6F894DEBF37
:1027C0000FBECDBFCF91DF9108950F931F93DF937D
:1027D000CF93CDB7DEB7C655D0400FB6F894DEBF65
:1027E0000FBECDBFFE01EB5AFF4F9183808383E084
:1027F00060E00E941A11FE01EB5AFF4F8081918127
:102800000E94F110FE01EF5AFF4F80E090E0A8E433
:10281000B2E480839183A283B3838E01035B1F4F55
:10282000FE01EF5AFF4F608171818281938120E028
:1028300030E04AEF54E40E941702DC01CB01F801BA
:1028400080839183A283B383FE01E35BFF4F6081AA
:1028500071818281938120E030E040E85FE30E9453
:102860001D04882344F4FE01E55BFF4F81E090E006
:102870009183808364C0FE01E35BFF4F60817181BF
:102880008281938120E03FEF4FE757E40E94BD0330
:1028900018160CF043C0FE01EF5AFF4F60817181A2
:1028A0008281938120E030E040E251E40E941702EF
:1028B000DC01CB018E01055B1F4FBC01CD010E94E5
:1028C0004100DC01CB01F801918380831FC0FE0130
:1028D000E75BFF4F88EC90E091838083FE01E75B2C
:1028E000FF4F808191810197F1F7FE01E75BFF4F78
:1028F00091838083DE01A55BBF4FFE01E55BFF4F47
:1029000080819181019711969C938E93FE01E55BE6
:10291000FF4F808191810097D1F627C08E01055B22
:102920001F4FFE01E35BFF4F6081718182819381C4
:102930000E944100DC01CB01F80191838083DE011C
:10294000A95BBF4FFE01E55BFF4F808191818D93B5
:102950009C93FE01E95BFF4F808191810197F1F724
:10296000FE01E95BFF4F918380830E942313FE01E8
:10297000ED5BFF4F80E090E0A8E4B2E480839183B8
:10298000A283B3838E01015C1F4FFE01ED5BFF4FFD
:10299000608171818281938120E030E04AEF54E4CC
:1029A0000E941702DC01CB01F80180839183A2838E
:1029B000B383FE01FF96608171818281938120E063
:1029C00030E040E85FE30E941D0488232CF481E09E
:1029D00090E09EAF8DAF46C0FE01FF966081718191
:1029E0008281938120E03FEF4FE757E40E94BD03CF
:1029F000181664F5FE01ED5BFF4F608171818281E5
:102A0000938120E030E040E251E40E941702DC01B3
:102A1000CB01BC01CD010E944100DC01CB019EAF86
:102A20008DAF0FC088EC90E09CAF8BAF8BAD9CADB1
:102A30000197F1F79CAF8BAF8DAD9EAD01979EAF27
:102A40008DAF8DAD9EAD009769F716C0FE01FF9664
:102A500060817181828193810E944100DC01CB0100
:102A60009EAF8DAF8DAD9EAD9AAF89AF89AD9AAD5A
:102A70000197F1F79AAF89AF0E94191380E090E0B7
:102A8000A8E4B2E48DAB9EABAFABB8AF6DA97EA9A5
:102A90008FA998AD20E030E04AEF54E40E9417027D
:102AA000DC01CB0189AB9AABABABBCAB69A97AA912
:102AB0008BA99CA920E030E040E85FE30E941D0460
:102AC00088232CF481E090E098AB8FA73FC069A9E0
:102AD0007AA98BA99CA920E03FEF4FE757E40E9419
:102AE000BD0318164CF56DA97EA98FA998AD20E0FD
:102AF00030E040E251E40E941702DC01CB01BC014E
:102B0000CD010E944100DC01CB0198AB8FA70FC023
:102B100088EC90E09EA78DA78DA59EA50197F1F763
:102B20009EA78DA78FA598A9019798AB8FA78FA572
:102B300098A9009769F714C069A97AA98BA99CA9DB
:102B40000E944100DC01CB0198AB8FA78FA598A90B
:102B50009CA78BA78BA59CA50197F1F79CA78BA79A
:102B60000E94051384E061E00E941A11FE01EB5AF5
:102B7000FF4F808191810E94F11080E090E0A8E4F5
:102B8000B2E48FA398A7A9A7BAA76FA178A589A532
:102B90009AA520E030E04AEF54E40E941702DC01DD
:102BA000CB018BA39CA3ADA3BEA36BA17CA18DA1E4
:102BB0009EA120E030E040E85FE30E941D048823EE
:102BC0002CF481E090E09AA389A33FC06BA17CA183
:102BD0008DA19EA120E03FEF4FE757E40E94BD0387
:102BE00018164CF56FA178A589A59AA520E030E0CC
:102BF00040E251E40E941702DC01CB01BC01CD018F
:102C00000E944100DC01CB019AA389A30FC088EC8C
:102C100090E098A38F8F8F8D98A10197F1F798A3DB
:102C20008F8F89A19AA101979AA389A389A19AA1BB
:102C3000009769F714C06BA17CA18DA19EA10E9491
:102C40004100DC01CB019AA389A389A19AA19E8F9F
:102C50008D8F8D8D9E8D0197F1F79E8F8D8F0E94A8
:102C6000191380E090E0A8E4B2E4898F9A8FAB8FCB
:102C7000BC8F698D7A8D8B8D9C8D20E030E04AEF82
:102C800054E40E941702DC01CB018D8B9E8BAF8B2D
:102C9000B88F6D897E898F89988D20E030E040E87B
:102CA0005FE30E941D0488232CF481E090E09C8B5C
:102CB0008B8B3FC06D897E898F89988D20E03FEF97
:102CC0004FE757E40E94BD0318164CF5698D7A8DC5
:102CD0008B8D9C8D20E030E040E251E40E94170291
:102CE000DC01CB01BC01CD010E944100DC01CB0124
:102CF0009C8B8B8B0FC088EC90E09A8B898B898999
:102D00009A890197F1F79A8B898B8B899C89019716
:102D10009C8B8B8B8B899C89009769F714C06D897C
:102D20007E898F89988D0E944100DC01CB019C8BAC
:102D30008B8B8B899C89988B8F878F85988901973E
:102D4000F1F7988B8F870E94051383E060E00E9463
:102D50001A11FE01EB5AFF4F808191810E94F11000
:102D600080E090E0A8E4B2E48B879C87AD87BE87C3
:102D70006B857C858D859E8520E030E04AEF54E4AC
:102D80000E941702DC01CB018F839887A987BA873D
:102D90006F81788589859A8520E030E040E85FE39F
:102DA0000E941D0488232CF481E090E09E838D8393
:102DB0003FC06F81788589859A8520E03FEF4FE796
:102DC00057E40E94BD0318164CF56B857C858D85F4
:102DD0009E8520E030E040E251E40E941702DC01D1
:102DE000CB01BC01CD010E944100DC01CB019E83DF
:102DF0008D830FC088EC90E09C838B838B819C81BA
:102E00000197F1F79C838B838D819E8101979E832F
:102E10008D838D819E81009769F714C06F817885BD
:102E200089859A850E944100DC01CB019E838D83B8
:102E30008D819E819A83898389819A810197F1F797
:102E40009A8389830E941913CA5ADF4F0FB6F894E8
:102E5000DEBF0FBECDBFCF91DF911F910F910895BF
:102E6000DF93CF93CDB7DEB783E060E040E00E9410
:102E7000F10783E061E040E00E94F10783E062E057
:102E800040E00E94F10783E063E040E00E94F10728
:102E900083E064E041E00E94F10783E065E041E007
:102EA0000E94F10783E066E041E00E94F10783E0C1
:102EB00067E041E00E94F10783E060E041E00E94AA
:102EC000030983E061E041E00E94030983E062E0DE
:102ED00041E00E94030983E063E041E00E940309AE
:102EE00083E064E041E00E94030983E065E041E0A3
:102EF0000E94030983E066E041E00E94030983E049
:102F000067E041E00E940309CF91DF910895DF93CC
:102F1000CF93CDB7DEB7A0970FB6F894DEBF0FBE44
:102F2000CDBF8FEF8F8F84E08E8F27C183E06E8DB2
:102F300040E00E9403091D8E14C19E01205E3F4F98
:102F400083E06D8DA9010E94150A88A1882309F0EC
:102F500005C18D8D482F50E08E8D882F90E09C010B
:102F600024503040CA01880F991F880F991F820F83
:102F7000931FFC01E059FE4F80818F8F80E090E02D
:102F8000A0EAB0E4898F9A8FAB8FBC8F698D7A8D60
:102F90008B8D9C8D20E030E04AEF54E40E941702B4
:102FA000DC01CB018D8B9E8BAF8BB88F6D897E89B9
:102FB0008F89988D20E030E040E85FE30E941D0497
:102FC00088232CF481E090E09C8B8B8B3FC06D8933
:102FD0007E898F89988D20E03FEF4FE757E40E946C
:102FE000BD0318164CF5698D7A8D8B8D9C8D20E074
:102FF00030E040E251E40E941702DC01CB01BC0149
:10300000CD010E944100DC01CB019C8B8B8B0FC05A
:1030100088EC90E09A8B898B89899A890197F1F7DE
:103020009A8B898B8B899C8901979C8B8B8B8B8945
:103030009C89009769F71DC06D897E898F89988D5D
:103040000E944100DC01CB019C8B8B8B8B899C897E
:10305000988B8F878F8598890197F1F7988B8F8749
:1030600008C09E01205E3F4F83E06D8DA9010E9444
:10307000150A88A18823A9F380E090E0A0EAB0E4D3
:103080008B879C87AD87BE876B857C858D859E856C
:1030900020E030E04AEF54E40E941702DC01CB014B
:1030A0008F839887A987BA876F81788589859A8564
:1030B00020E030E040E85FE30E941D0488232CF408
:1030C00081E090E09E838D833FC06F817885898504
:1030D0009A8520E03FEF4FE757E40E94BD031816A2
:1030E0004CF56B857C858D859E8520E030E040E247
:1030F00051E40E941702DC01CB01BC01CD010E940A
:103100004100DC01CB019E838D830FC088EC90E0F1
:103110009C838B838B819C810197F1F79C838B83AC
:103120008D819E8101979E838D838D819E810097E5
:1031300069F714C06F81788589859A850E9441005E
:10314000DC01CB019E838D838D819E819A8389834F
:1031500089819A810197F1F79A8389838D8D8F5F99
:103160008D8F8D8D843008F4E8CE83E06E8D41E044
:103170000E9403098E8D8F5F8E8F8E8D883008F4AC
:10318000D5CE8F8DA0960FB6F894DEBF0FBECDBF03
:10319000CF91DF910895DF93CF93CDB7DEB76897D6
:1031A0000FB6F894DEBF0FBECDBF0E94350F0E9450
:1031B000A80A0E94051380E00E94E70A988F8F8B6F
:1031C0008F89988DCC01A0E0B0E0BC01CD010E94B8
:1031D000A104DC01CB01BC01CD0126EF38E24CE9B2
:1031E00050E40E941702DC01CB018B8B9C8BAD8BD2
:1031F000BE8B6B897C898D899E8920E030E040E21E
:1032000051E40E941103DC01CB01BC01CD010E94FD
:103210004100DC01CB018F87988BA98BBA8B80E6AC
:1032200090E00E94F1108F859889A989BA89BC0124
:10323000CD010E943F1286E690E00E94F11080E0EE
:1032400090E0A8E4B4E48B879C87AD87BE876B854C
:103250007C858D859E8520E030E04AEF54E40E9415
:103260001702DC01CB018F839887A987BA876F810A
:10327000788589859A8520E030E040E85FE30E9408
:103280001D0488232CF481E090E09E838D833FC051
:103290006F81788589859A8520E03FEF4FE757E475
:1032A0000E94BD0318164CF56B857C858D859E8527
:1032B00020E030E040E251E40E941702DC01CB0143
:1032C000BC01CD010E944100DC01CB019E838D83B6
:1032D0000FC088EC90E09C838B838B819C8101974D
:1032E000F1F79C838B838D819E8101979E838D83D3
:1032F0008D819E81009769F75CCF6F817885898584
:103300009A850E944100DC01CB019E838D838D81D3
:103310009E819A83898389819A810197F1F79A83A3
:10332000898347CF97FB092E05260ED057FD04D081
:1033300014D00AD0001C38F4509540953095219552
:103340003F4F4F4F5F4F0895F6F7909580957095DA
:1033500061957F4F8F4F9F4F0895A1E21A2EAA1BB0
:10336000BB1BFD010DC0AA1FBB1FEE1FFF1FA21735
:10337000B307E407F50720F0A21BB30BE40BF50B32
:10338000661F771F881F991F1A9469F760957095BB
:10339000809590959B01AC01BD01CF0108952F92BE
:1033A0003F924F925F926F927F928F929F92AF92D5
:1033B000BF92CF92DF92EF92FF920F931F93CF9322
:1033C000DF93CDB7DEB7CA1BDB0B0FB6F894DEBFB9
:1033D0000FBECDBF09942A88398848885F846E84DF
:1033E0007D848C849B84AA84B984C884DF80EE8029
:1033F000FD800C811B81AA81B981CE0FD11D0FB632
:10340000F894DEBF0FBECDBFED010895F894FFCF55
:1034100054656D703D004300000000000000000096
:10342000000102020303030304040404040404046B
:10343000050505050505050505050505050505053C
:10344000060606060606060606060606060606061C
:10345000060606060606060606060606060606060C
:1034600007070707070707070707070707070707EC
:1034700007070707070707070707070707070707DC
:1034800007070707070707070707070707070707CC
:1034900007070707070707070707070707070707BC
:1034A000080808080808080808080808080808089C
:1034B000080808080808080808080808080808088C
:1034C000080808080808080808080808080808087C
:1034D000080808080808080808080808080808086C
:1034E000080808080808080808080808080808085C
:1034F000080808080808080808080808080808084C
:10350000080808080808080808080808080808083B
:10351000080808080808080808080808080808082B
:103520000708092B0405062D0102032A63003D2F1D
:00000001FF
