:100000000C942A000C9434000C9434000C943400AA
:100010000C9434000C9434000C9434000C94340090
:100020000C9434000C9434000C9434000C94340080
:100030000C9434000C9434000C9434000C94340070
:100040000C9434000C9434000C9434000C94340060
:100050000C94340011241FBECFE5D8E0DEBFCDBF25
:100060000E9491040C94B4040C940000DF93CF938D
:1000700000D000D00F92CDB7DEB78A836B83198290
:100080008A81282F30E03D832C838C819D818130B3
:100090009105D1F02C813D81223031052CF48C81E9
:1000A0009D81009761F01FC02C813D812230310578
:1000B00081F08C819D818330910581F014C0EAE349
:1000C000F0E08B81808311C0E7E3F0E08B818083D7
:1000D0000CC0E4E3F0E08B81808307C0E1E3F0E053
:1000E0008B81808302C081E0898389810F900F908A
:1000F0000F900F900F90CF91DF910895DF93CF93E2
:1001000000D000D00F92CDB7DEB78A836B831982FF
:100110008A81282F30E03D832C838C819D81813022
:100120009105D1F02C813D81223031052CF48C8158
:100130009D81009761F01FC02C813D8122303105E7
:1001400081F08C819D818330910581F014C0EBE3B7
:10015000F0E08B81808311C0E8E3F0E08B81808345
:100160000CC0E5E3F0E08B81808307C0E2E3F0E0C0
:100170008B81808302C081E0898389810F900F90F9
:100180000F900F900F90CF91DF910895DF93CF9351
:1001900000D000D000D0CDB7DEB78A837C836B83DC
:1001A00019828A81282F30E03E832D838D819E81A4
:1001B00081309105E1F02D813E81223031052CF412
:1001C0008D819E81009761F027C02D813E81223074
:1001D0003105A1F08D819E8183309105B1F01CC065
:1001E000E9E3F0E08081EB81FC81808317C0E6E3E6
:1001F000F0E08081EB81FC81808310C0E3E3F0E0DC
:100200008081EB81FC81808309C0E0E3F0E08081A4
:10021000EB81FC81808302C081E0898389812696FD
:100220000FB6F894DEBF0FBECDBFCF91DF9108951A
:10023000DF93CF93CDB7DEB728970FB6F894DEBF24
:100240000FBECDBF8A836B834C8319828B8188302C
:1002500008F0F4C08C81882309F077C08A81282FA8
:1002600030E038872F838F8198858130910559F14F
:100270002F813885223031052CF48F8198850097A5
:1002800069F060C02F8138852230310589F18F8176
:1002900098858330910509F440C054C0AAE3B0E0CA
:1002A000EAE3F0E08081482F8B81282F30E081E065
:1002B00090E0022E02C0880F991F0A94E2F7809501
:1002C00084238C93BDC0A7E3B0E0E7E3F0E0808136
:1002D000482F8B81282F30E081E090E0022E02C071
:1002E000880F991F0A94E2F7809584238C93A8C005
:1002F000A4E3B0E0E4E3F0E08081482F8B81282F75
:1003000030E081E090E0022E02C0880F991F0A942D
:10031000E2F7809584238C9393C0A1E3B0E0E1E3FE
:10032000F0E08081482F8B81282F30E081E090E041
:10033000022E02C0880F991F0A94E2F78095842349
:100340008C937EC081E089837BC08C81813009F0F1
:1003500072C08A81282F30E03E832D838D819E815B
:100360008130910549F12D813E81223031052CF4F7
:100370008D819E81009761F05BC02D813E8122308E
:10038000310571F18D819E8183309105E9F150C075
:10039000AAE3B0E0EAE3F0E08081482F8B81282FC8
:1003A00030E081E090E0022E02C0880F991F0A948D
:1003B000E2F7842B8C9344C0A7E3B0E0E7E3F0E0DE
:1003C0008081482F8B81282F30E081E090E0022E41
:1003D00002C0880F991F0A94E2F7842B8C9330C0D7
:1003E000A4E3B0E0E4E3F0E08081482F8B81282F84
:1003F00030E081E090E0022E02C0880F991F0A943D
:10040000E2F7842B8C931CC0A1E3B0E0E1E3F0E0C1
:100410008081482F8B81282F30E081E090E0022EF0
:1004200002C0880F991F0A94E2F7842B8C9308C0AE
:1004300081E0898305C081E0898302C081E08983EE
:10044000898128960FB6F894DEBF0FBECDBFCF913D
:10045000DF910895DF93CF93CDB7DEB728970FB61E
:10046000F894DEBF0FBECDBF8A836B834C831982A5
:100470008B81883008F0F4C08C81882309F077C024
:100480008A81282F30E038872F838F8198858130AB
:10049000910559F12F813885223031052CF48F8157
:1004A0009885009769F060C02F813885223031052A
:1004B00089F18F8198858330910509F440C054C03B
:1004C000ABE3B0E0EBE3F0E08081482F8B81282F95
:1004D00030E081E090E0022E02C0880F991F0A945C
:1004E000E2F7809584238C93BDC0A8E3B0E0E8E3F5
:1004F000F0E08081482F8B81282F30E081E090E070
:10050000022E02C0880F991F0A94E2F78095842377
:100510008C93A8C0A5E3B0E0E5E3F0E08081482F2C
:100520008B81282F30E081E090E0022E02C0880FFE
:10053000991F0A94E2F7809584238C9393C0A2E3D9
:10054000B0E0E2E3F0E08081482F8B81282F30E09B
:1005500081E090E0022E02C0880F991F0A94E2F712
:10056000809584238C937EC081E089837BC08C81BD
:10057000813009F072C08A81282F30E03E832D83BC
:100580008D819E818130910549F12D813E812230FE
:1005900031052CF48D819E81009761F05BC02D8127
:1005A0003E812230310571F18D819E81833091052C
:1005B000E9F150C0ABE3B0E0EBE3F0E08081482F1D
:1005C0008B81282F30E081E090E0022E02C0880F5E
:1005D000991F0A94E2F7842B8C9344C0A8E3B0E0FF
:1005E000E8E3F0E08081482F8B81282F30E081E024
:1005F00090E0022E02C0880F991F0A94E2F7842B24
:100600008C9330C0A5E3B0E0E5E3F0E08081482FB3
:100610008B81282F30E081E090E0022E02C0880F0D
:10062000991F0A94E2F7842B8C931CC0A2E3B0E0DC
:10063000E2E3F0E08081482F8B81282F30E081E0D9
:1006400090E0022E02C0880F991F0A94E2F7842BD3
:100650008C9308C081E0898305C081E0898302C052
:1006600081E08983898128960FB6F894DEBF0FBE9A
:10067000CDBFCF91DF910895DF93CF93CDB7DEB794
:1006800027970FB6F894DEBF0FBECDBF8A836B836A
:100690005D834C8319828B81883008F0A5C08A81E4
:1006A000282F30E03F832E834E815F8141305105FA
:1006B000C1F18E819F818230910534F42E813F817A
:1006C0002115310571F08DC04E815F814230510599
:1006D00009F447C08E819F818330910509F461C080
:1006E00080C0E9E3F0E08081482F50E08B81282F23
:1006F00030E081E090E002C0880F991F2A95E2F770
:100700009A01282339238B81882F90E0A90102C008
:10071000559547958A95E2F7CA01EC81FD81808362
:1007200065C0E6E3F0E08081482F50E08B81282F00
:1007300030E081E090E002C0880F991F2A95E2F72F
:100740009A01282339238B81882F90E0A90102C0C8
:10075000559547958A95E2F7CA01EC81FD81808322
:1007600045C0E3E3F0E08081482F50E08B81282FE3
:1007700030E081E090E002C0880F991F2A95E2F7EF
:100780009A01282339238B81882F90E0A90102C088
:10079000559547958A95E2F7CA01EC81FD818083E2
:1007A00025C0E0E3F0E08081482F50E08B81282FC6
:1007B00030E081E090E002C0880F991F2A95E2F7AF
:1007C0009A01282339238B81882F90E0A90102C048
:1007D000559547958A95E2F7CA01EC81FD818083A2
:1007E00005C081E0898302C081E0898389812796E1
:1007F0000FB6F894DEBF0FBECDBFCF91DF91089545
:10080000DF93CF93CDB7DEB7A6E2B0E0E6E2F0E04B
:10081000808180688C93A7E2B0E0E7E2F0E080811D
:1008200080648C93A7E2B0E0E7E2F0E080818F770C
:100830008C93A7E2B0E0E7E2F0E080818F7D8C93BB
:10084000A6E2B0E0E6E2F0E080818F7D8C93A6E244
:10085000B0E0E6E2F0E0808181608C93A6E2B0E057
:10086000E6E2F0E080818D7F8C93A6E2B0E0E6E2E4
:10087000F0E0808184608C93CF91DF910895DF93C5
:10088000CF9300D00F92CDB7DEB78B83A7E2B0E055
:10089000E7E2F0E08081807E8C93A7E2B0E0E7E2BF
:1008A000F0E090818B81892B8C93A6E2B0E0E6E2A8
:1008B000F0E0808180648C93E6E2F0E08081882F14
:1008C00090E0807190709595879595958795959511
:1008D000879595958795009779F3A6E2B0E0E6E2D3
:1008E000F0E0808180618C93E4E2F0E08081882FE9
:1008F00090E09A838983E5E2F0E08081882F90E0A0
:10090000982F88279C0189819A81822B932B9A8327
:10091000898389819A810F900F900F90CF91DF91F9
:100920000895DF93CF9300D0CDB7DEB70E940004C7
:1009300083E065E041E00E94180180E00E943F04EE
:100940009A83898389819A8122E08030920730F0EE
:1009500083E065E041E00E942A02EFCF83E065E09A
:0C09600040E00E942A02E9CFF894FFCF8B
:00000001FF
