:100000000C942A000C9434000C9434000C943400AA
:100010000C9434000C9434000C9434000C94340090
:100020000C9434000C9434000C9434000C94340080
:100030000C9434000C9434000C9434000C94340070
:100040000C9434000C9434000C9434000C94340060
:100050000C94340011241FBECFE5D8E0DEBFCDBF25
:100060000E9436000C946B000C940000DF93CF9339
:10007000CDB7DEB7AAE3B0E0EAE3F0E080818560C7
:100080008C93E4E3F0E01082E5E3F0E08FEF80830F
:100090000EC0ABE3B0E0EBE3F0E0808184608C93D2
:1000A000ABE3B0E0EBE3F0E080818E7F8C93E3E3A1
:1000B000F0E08081863D69F3ABE3B0E0EBE3F0E094
:1000C000808181608C93ABE3B0E0EBE3F0E0808172
:0A00D0008B7F8C93ECCFF894FFCFE8
:00000001FF
