:100000000C942A000C9447000C9447000C94470071
:100010000C9447000C9447000C9447000C94470044
:100020000C9447000C9447000C9447000C94470034
:100030000C9447000C9447000C9447000C94470024
:100040000C9447000C9447000C9447000C94470014
:100050000C94470011241FBECFE5D8E0DEBFCDBF12
:1000600012E0A0E6B0E0E4EBFFE302C005900D92E1
:10007000A230B107D9F712E0A2E0B2E001C01D92B0
:10008000AC30B107E1F70E94321F0C94D81F0C94DA
:100090000000EF92FF920F931F937B018C0120E0F1
:1000A00030E040E05FE40E94490388238CF0C801FF
:1000B000B70120E030E040E05FE40E94C1010E940F
:1000C00007049B01AC01205030404040504806C01E
:1000D000C801B7010E9407049B01AC01B901CA0124
:1000E0001F910F91FF90EF900895A0E0B0E0EBE733
:1000F000F0E00C94A11FDC012B01FA019C919230DD
:1001000008F439C1EB018881823008F433C194309E
:1001100069F4843009F02FC111969C91119789815F
:10012000981709F428C1A7EEB0E025C1843009F47E
:1001300021C18230A9F4923009F01DC19A01AD01AC
:1001400088E0EA010990AE01E90109929E0181501F
:10015000C1F7E201898111969C918923818308C1AD
:10016000923009F407C112962D903C901397EB0141
:100170008A819B811496AD90BD90CD90DC901797AD
:10018000EC80FD800E811F819101281B390BB90184
:1001900037FF04C066277727621B730B6032710537
:1001A0000CF061C0121613066CF537014801062EDB
:1001B00004C096948794779467940A94D2F721E0C8
:1001C00030E040E050E004C0220F331F441F551FB1
:1001D0006A95D2F721503040404050402E213F21B7
:1001E00040235123211531054105510521F021E01E
:1001F00030E040E050E079018A01E628F72808293C
:1002000019293CC0232BD1F1260E371E350146019A
:10021000062E04C096948794779467940A94D2F734
:1002200021E030E040E050E004C0220F331F441FC3
:10023000551F6A95D2F721503040404050402A2146
:100240003B214C215D21211531054105510521F04E
:1002500021E030E040E050E059016A01A628B728CB
:10026000C828D9280BC0821593052CF01C01AA249C
:10027000BB24650103C0EE24FF24870111969C91E5
:10028000D20111968C91981709F445C0992339F041
:10029000A80197012A193B094C095D0906C0A6016E
:1002A00095012E193F09400B510B57FD08C01182D3
:1002B0003382228224833583468357831DC081E0A5
:1002C00081833382228288279927DC01821B930B4A
:1002D000A40BB50B84839583A683B7830DC0220F2F
:1002E000331F441F551F24833583468357838281E0
:1002F000938101979383828324813581468157813D
:10030000DA01C9010197A109B1098F5F9F4FAF4F72
:10031000BF4328F30BC0918333822282EA0CFB1C7B
:100320000C1D1D1DE482F5820683178383E0808304
:10033000248135814681578157FF1AC0C901AA27F8
:1003400097FDA095BA2F81709070A070B0705695EF
:10035000479537952795822B932BA42BB52B848318
:100360009583A683B7838281938101969383828349
:10037000DF0101C0D201CD01CDB7DEB7E2E10C94BF
:10038000BD1FA0E2B0E0E7ECF1E00C94AD1F698383
:100390007A838B839C832D833E834F835887E9E048
:1003A000EE2EF12CEC0EFD1ECE010196B7010E943F
:1003B000F8058E010F5E1F4FCE010596B8010E9411
:1003C000F8058A8991E089278A8BC701B801AE01B7
:1003D000475E5F4F0E9475000E942305A096E6E0ED
:1003E0000C94C91FA0E2B0E0E8EFF1E00C94AD1F5F
:1003F00069837A838B839C832D833E834F835887C5
:10040000F9E0EF2EF12CEC0EFD1ECE010196B701A6
:100410000E94F8058E010F5E1F4FCE010596B801B0
:100420000E94F805C701B801AE01475E5F4F0E9408
:1004300075000E942305A096E6E00C94C91FA0E277
:10044000B0E0E5E2F2E00C94A11F69837A838B832C
:100450009C832D833E834F835887CE010196BE0136
:10046000675F7F4F0E94F805CE010596BE016F5E63
:100470007F4F0E94F8059985923088F089898230F3
:10048000C8F0943019F4823051F404C0843029F457
:10049000923081F487EE90E0C6C0923049F420E0BB
:1004A0009A858A89981321E02A87CE010996BBC0D4
:1004B000823049F420E09A858A89981321E02A8BBA
:1004C000CE014196B0C02D843E844F8458886D88FB
:1004D0007E888F88988CEE24FF248701AA24BB2471
:1004E000650140E050E060E070E0E0E0F0E0C10174
:1004F00081709070892BE9F0E60CF71C081D191D1E
:100500009A01AB012A0D3B1D4C1D5D1D80E090E062
:10051000A0E0B0E0E614F7040805190520F481E036
:1005200090E0A0E0B0E0BA01A901480F591F6A1F8E
:100530007B1FAA0CBB1CCC1CDD1C97FE08C081E0F5
:1005400090E0A0E0B0E0A82AB92ACA2ADB2A3196B6
:10055000E032F10549F0660C771C881C991C569412
:10056000479437942794C3CFFA85EA892B893C892D
:100570008B859C85280F391F2E5F3F4F17C0CA01FE
:1005800081709070892B61F016950795F794E79428
:1005900080E090E0A0E0B0E8E82AF92A0A2B1B2BC3
:1005A00076956795579547952F5F3F4F77FDE7CF36
:1005B0000CC0440F551F661F771F17FD4160EE0CDE
:1005C000FF1C001F111F21503040403090E05907A0
:1005D00090E0690790E4790760F32B8F3C8FDB0193
:1005E000CA018F779070A070B07080349105A1051A
:1005F000B10561F447FD0AC0E114F10401051105DC
:1006000029F0405C5F4F6F4F7F4F40781A8EFE1786
:1006100011F081E08A8F4D8F5E8F6F8F78A383E01A
:10062000898FCE0149960E942305A096E2E10C94A1
:10063000BD1FA8E1B0E0EFE1F3E00C94AD1F6983CA
:100640007A838B839C832D833E834F83588789E0F5
:10065000E82EF12CEC0EFD1ECE010196B7010E9492
:10066000F8058E010F5E1F4FCE010596B8010E945E
:10067000F8058985823040F08989823028F0C701E9
:10068000B8010E94700601C08FEF6896E6E00C94F6
:10069000C91FA8E1B0E0EFE4F3E00C94AD1F69835B
:1006A0007A838B839C832D833E834F83588789E095
:1006B000E82EF12CEC0EFD1ECE010196B7010E9432
:1006C000F8058E010F5E1F4FCE010596B8010E94FE
:1006D000F8058985823040F08989823028F0C70189
:1006E000B8010E94700601C08FEF6896E6E00C9496
:1006F000C91FA8E1B0E0EFE7F3E00C94AD1F6983F8
:100700007A838B839C832D833E834F83588789E034
:10071000E82EF12CEC0EFD1ECE010196B7010E94D1
:10072000F8058E010F5E1F4FCE010596B8010E949D
:10073000F8058985823040F08989823028F0C70128
:10074000B8010E94700601C081E06896E6E00C9452
:10075000C91FA8E0B0E0EFEAF3E00C94AA1F9B01E8
:10076000AC0183E08983DA01C9018827B7FD83954D
:100770009927AA27BB27B82E211531054105510518
:1007800019F482E089833AC08823A9F0203080E000
:10079000380780E0480780E8580729F460E070E0F7
:1007A00080E09FEC30C0EE24FF248701E21AF30AB8
:1007B000040B150B02C079018A018EE1C82ED12CE1
:1007C000DC82CB82ED82FE820F831887C801B701DD
:1007D0000E94D40401971816190684F4082E04C048
:1007E000EE0CFF1C001F111F0A94D2F7ED82FE824F
:1007F0000F831887C81AD90ADC82CB82BA82CE014D
:1008000001960E9423052896E9E00C94C61FACE0EF
:10081000B0E0EDE0F4E00C94B11F69837A838B8340
:100820009C83CE010196BE016B5F7F4F0E94F8054D
:100830008D81823061F1823050F1843021F48E81DB
:10084000882351F12EC02F81388537FD20C06E815D
:100850002F3131051CF06623F9F023C08EE190E0C2
:10086000821B930B29853A854B855C8504C0569580
:100870004795379527958A95D2F76623B1F050951D
:100880004095309521953F4F4F4F5F4F0EC020E070
:1008900030E040E050E009C02FEF3FEF4FEF5FE75F
:1008A00004C020E030E040E050E8B901CA012C96D5
:1008B000E2E00C94CD1FA8E0B0E0E1E6F4E00C9497
:1008C000A91F7B018C01611571058105910519F442
:1008D00082E0898360C083E089838EE1C82ED12CB9
:1008E000DC82CB82ED82FE820F831887C801B701BC
:1008F0000E94D404FC013197F7FF3BC02227332725
:100900002E1B3F0B57016801022E04C0D694C794DA
:10091000B794A7940A94D2F740E050E060E070E00A
:1009200081E090E0A0E0B0E004C0880F991FAA1F0A
:10093000BB1F2A95D2F70197A109B1098E219F21EA
:10094000A023B1230097A105B10521F041E050E0BB
:1009500060E070E04A295B296C297D294D835E8324
:100960006F8378878EE190E08E1B9F0B9C838B8337
:1009700012C0309781F00E2E04C0EE0CFF1C001F39
:10098000111F0A94D2F7ED82FE820F831887CE1AC8
:10099000DF0ADC82CB821A82CE0101960E942305F7
:1009A0002896EAE00C94C51FEF92FF920F931F93D5
:1009B0007B018C0180E0E81680E0F80681E0080702
:1009C00080E0180788F48FEFE816F104010511059F
:1009D00031F028F088E090E0A0E0B0E017C080E0BF
:1009E00090E0A0E0B0E012C080E0E81680E0F806F9
:1009F00080E0080781E0180728F088E190E0A0E097
:100A0000B0E004C080E190E0A0E0B0E020E230E09F
:100A100040E050E0281B390B4A0B5B0B04C01695D5
:100A20000795F794E7948A95D2F7F701E151FF4FC4
:100A30008081281B310941095109C9011F910F917A
:100A4000FF90EF900895DF92EF92FF920F931F9324
:100A5000FC01E480F58006811781D180808182309D
:100A600048F480E090E0A0E1B0E0E82AF92A0A2BFF
:100A70001B2BA5C0843009F49FC0823021F4EE24E2
:100A8000FF24870105C0E114F1040105110519F4E3
:100A9000E0E0F0E096C0628173819FEF62387907F1
:100AA0000CF05BC022E83FEF261B370B2A313105E3
:100AB0002CF020E030E040E050E02AC0B801A7016F
:100AC000022E04C076956795579547950A94D2F7FC
:100AD00081E090E0A0E0B0E004C0880F991FAA1F59
:100AE000BB1F2A95D2F70197A109B1098E219F2139
:100AF000A023B1230097A105B10521F081E090E08A
:100B0000A0E0B0E09A01AB01282B392B4A2B5B2BDC
:100B1000DA01C9018F779070A070B07080349105B0
:100B2000A105B10539F427FF09C0205C3F4F4F4FA5
:100B30005F4F04C0215C3F4F4F4F5F4FE0E0F0E05C
:100B40002030A0E03A07A0E04A07A0E45A0710F0DE
:100B5000E1E0F0E079018A0127C06038710564F5B1
:100B6000FB01E158FF4FD801C7018F779070A0704B
:100B7000B07080349105A105B10539F4E7FE0DC0D0
:100B800080E490E0A0E0B0E004C08FE390E0A0E05B
:100B9000B0E0E80EF91E0A1F1B1F17FF05C01695CF
:100BA0000795F794E794319687E016950795F794A3
:100BB000E7948A95D1F705C0EE24FF248701EFEF73
:100BC000F0E06E2F679566276795902F9F77D794F3
:100BD000DD24D7948E2F8695492F462B582F5D29DB
:100BE000B701CA011F910F91FF90EF90DF90089518
:100BF000FC01DB01408151812281622F6F7770E01F
:100C0000221F2227221F9381892F880F822B282FB2
:100C100030E0991F9927991F11969C9311972115E0
:100C20003105A9F5411551056105710511F482E001
:100C300037C082E89FEF13969C938E9312979A0188
:100C4000AB0167E0220F331F441F551F6A95D1F790
:100C500083E08C930DC0220F331F441F551F129643
:100C60008D919C911397019713969C938E93129755
:100C7000203080E0380780E0480780E4580758F3C8
:100C800014962D933D934D935C93179708952F3FA2
:100C9000310579F4411551056105710519F484E0B8
:100CA0008C93089564FF03C081E08C9312C01C9262
:100CB00010C02F57304013963C932E93129783E029
:100CC0008C9387E0440F551F661F771F8A95D1F7D5
:100CD000706414964D935D936D937C93179708956C
:100CE0001F93DC01FB019C91923008F447C0808186
:100CF000823008F443C0943051F411961C91843032
:100D000099F58181682F70E0611B71093FC08430C3
:100D100021F0923031F48230B9F18181882389F158
:100D20002DC011961C9111978230F1F08181181716
:100D3000D9F412962D913C91139782819381821759
:100D4000930794F028173907BCF014968D919D9164
:100D50000D90BC91A02D24813581468157812817A3
:100D600039074A075B0718F4112341F00AC08217BC
:100D70009307A407B50740F4112319F061E070E070
:100D800005C06FEF7FEF02C060E070E0CB011F9104
:100D90000895DF93CF9300D000D00F92CDB7DEB788
:100DA0008A836B8319828A81282F30E03D832C83CC
:100DB0008C819D8181309105D1F02C813D81223043
:100DC00031052CF48C819D81009761F01FC02C812E
:100DD0003D812230310581F08C819D8183309105E8
:100DE00081F014C0EAE3F0E08B81808311C0E7E377
:100DF000F0E08B8180830CC0E4E3F0E08B818083A2
:100E000007C0E1E3F0E08B81808302C081E0898349
:100E100089810F900F900F900F900F90CF91DF91DD
:100E20000895DF93CF9300D000D00F92CDB7DEB7F7
:100E30008A836B8319828A81282F30E03D832C833B
:100E40008C819D8181309105D1F02C813D812230B2
:100E500031052CF48C819D81009761F01FC02C819D
:100E60003D812230310581F08C819D818330910557
:100E700081F014C0EBE3F0E08B81808311C0E8E3E4
:100E8000F0E08B8180830CC0E5E3F0E08B81808310
:100E900007C0E2E3F0E08B81808302C081E08983B8
:100EA00089810F900F900F900F900F90CF91DF914D
:100EB0000895DF93CF9300D000D000D0CDB7DEB738
:100EC0008A837C836B8319828A81282F30E03E835A
:100ED0002D838D819E8181309105E1F02D813E81B0
:100EE000223031052CF48D819E81009761F027C05E
:100EF0002D813E8122303105A1F08D819E8183308C
:100F00009105B1F01CC0E9E3F0E08081EB81FC8148
:100F1000808317C0E6E3F0E08081EB81FC81808371
:100F200010C0E3E3F0E08081EB81FC81808309C0A5
:100F3000E0E3F0E08081EB81FC81808302C081E00E
:100F40008983898126960FB6F894DEBF0FBECDBF88
:100F5000CF91DF910895DF93CF93CDB7DEB7289778
:100F60000FB6F894DEBF0FBECDBF8A836B834C8370
:100F700019828B81883008F0F4C08C81882309F0B5
:100F800077C08A81282F30E038872F838F8198851A
:100F90008130910559F12F813885223031052CF4AB
:100FA0008F819885009769F060C02F813885223045
:100FB000310589F18F8198858330910509F440C00E
:100FC00054C0AAE3B0E0EAE3F0E08081482F8B81CF
:100FD000282F30E081E090E0022E02C0880F991F98
:100FE0000A94E2F7809584238C93BDC0A7E3B0E018
:100FF000E7E3F0E08081482F8B81282F30E081E00B
:1010000090E0022E02C0880F991F0A94E2F78095A3
:1010100084238C93A8C0A4E3B0E0E4E3F0E08081F3
:10102000482F8B81282F30E081E090E0022E02C013
:10103000880F991F0A94E2F7809584238C9393C0BC
:10104000A1E3B0E0E1E3F0E08081482F8B81282F1D
:1010500030E081E090E0022E02C0880F991F0A94D0
:10106000E2F7809584238C937EC081E089837BC0E6
:101070008C81813009F072C08A81282F30E03E8354
:101080002D838D819E818130910549F12D813E8195
:10109000223031052CF48D819E81009761F05BC078
:1010A0002D813E812230310571F18D819E81833009
:1010B0009105E9F150C0AAE3B0E0EAE3F0E08081F5
:1010C000482F8B81282F30E081E090E0022E02C073
:1010D000880F991F0A94E2F7842B8C9344C0A7E3EE
:1010E000B0E0E7E3F0E08081482F8B81282F30E0EB
:1010F00081E090E0022E02C0880F991F0A94E2F767
:10110000842B8C9330C0A4E3B0E0E4E3F0E0808172
:10111000482F8B81282F30E081E090E0022E02C022
:10112000880F991F0A94E2F7842B8C931CC0A1E3CB
:10113000B0E0E1E3F0E08081482F8B81282F30E0A0
:1011400081E090E0022E02C0880F991F0A94E2F716
:10115000842B8C9308C081E0898305C081E089835A
:1011600002C081E08983898128960FB6F894DEBF9A
:101170000FBECDBFCF91DF910895DF93CF93CDB751
:10118000DEB728970FB6F894DEBF0FBECDBF8A83B7
:101190006B834C8319828B81883008F0F4C08C817A
:1011A000882309F077C08A81282F30E038872F8381
:1011B0008F8198858130910559F12F8138852230B2
:1011C00031052CF48F819885009769F060C02F81DC
:1011D00038852230310589F18F81988583309105DA
:1011E00009F440C054C0ABE3B0E0EBE3F0E0808131
:1011F000482F8B81282F30E081E090E0022E02C042
:10120000880F991F0A94E2F7809584238C93BDC0C0
:10121000A8E3B0E0E8E3F0E08081482F8B81282F3D
:1012200030E081E090E0022E02C0880F991F0A94FE
:10123000E2F7809584238C93A8C0A5E3B0E0E5E3B2
:10124000F0E08081482F8B81282F30E081E090E012
:10125000022E02C0880F991F0A94E2F7809584231A
:101260008C9393C0A2E3B0E0E2E3F0E08081482FEA
:101270008B81282F30E081E090E0022E02C0880FA1
:10128000991F0A94E2F7809584238C937EC081E0B5
:1012900089837BC08C81813009F072C08A81282FBC
:1012A00030E03E832D838D819E818130910549F10F
:1012B0002D813E81223031052CF48D819E81009755
:1012C00061F05BC02D813E812230310571F18D814D
:1012D0009E8183309105E9F150C0ABE3B0E0EBE3D0
:1012E000F0E08081482F8B81282F30E081E090E072
:1012F000022E02C0880F991F0A94E2F7842B8C9368
:1013000044C0A8E3B0E0E8E3F0E08081482F8B819F
:10131000282F30E081E090E0022E02C0880F991F54
:101320000A94E2F7842B8C9330C0A5E3B0E0E5E3A8
:10133000F0E08081482F8B81282F30E081E090E021
:10134000022E02C0880F991F0A94E2F7842B8C9317
:101350001CC0A2E3B0E0E2E3F0E08081482F8B8183
:10136000282F30E081E090E0022E02C0880F991F04
:101370000A94E2F7842B8C9308C081E0898305C02E
:1013800081E0898302C081E08983898128960FB634
:10139000F894DEBF0FBECDBFCF91DF910895DF93EC
:1013A000CF93CDB7DEB727970FB6F894DEBF0FBE49
:1013B000CDBF8A836B835D834C8319828B81883098
:1013C00008F074C08A81282F30E03F832E834E813D
:1013D0005F814130510559F18E819F8182309105A5
:1013E00034F42E813F812115310569F05CC04E81B6
:1013F0005F814230510579F18E819F818330910563
:1014000009F43DC050C0E9E3F0E08081282F30E0CE
:101410008B81882F90E0A90102C0559547958A9548
:10142000E2F7CA018170EC81FD81808341C0E6E36F
:10143000F0E08081282F30E08B81882F90E0A90197
:1014400002C0559547958A95E2F7CA018170EC81F3
:10145000FD8180832DC0E3E3F0E08081282F30E020
:101460008B81882F90E0A90102C0559547958A95F8
:10147000E2F7CA018170EC81FD81808319C0E0E34D
:10148000F0E08081282F30E08B81882F90E0A90147
:1014900002C0559547958A95E2F7CA018170EC81A3
:1014A000FD81808305C081E0898302C081E089835A
:1014B000898127960FB6F894DEBF0FBECDBFCF91BE
:1014C000DF9108950F931F93DF93CF93CDB7DEB7CE
:1014D000CD54D0400FB6F894DEBF0FBECDBFFE0195
:1014E000E75BFF4F91838083FE01E55BFF4F6083E5
:1014F000FE01E45BFF4F4083FE01E35BFF4F20836F
:10150000FE01E55BFF4F8081882F90E0880F991FD7
:10151000880F991F880F991FFE01E85BFF4F80839A
:10152000FE01ED5BFF4F80E090E0A0E8BFE3808329
:101530009183A283B3838E01015C1F4FFE01ED5B9B
:10154000FF4F608171818281938120E030E04AEF1A
:1015500054E40E941F02DC01CB01F80180839183D7
:10156000A283B383FE01FF966081718182819381A2
:1015700020E030E040E85FE30E94790388232CF408
:1015800081E090E09EAF8DAF46C0FE01FF96608186
:1015900071818281938120E03FEF4FE757E40E9401
:1015A0001903181664F5FE01ED5BFF4F6081718130
:1015B0008281938120E030E040E251E40E941F02EA
:1015C000DC01CB01BC01CD010E944900DC01CB0153
:1015D0009EAF8DAF0FC088EC90E09CAF8BAF8BAD12
:1015E0009CAD0197F1F79CAF8BAF8DAD9EAD019790
:1015F0009EAF8DAF8DAD9EAD009769F716C0FE0111
:10160000FF9660817181828193810E944900DC0193
:10161000CB019EAF8DAF8DAD9EAD9AAF89AF89AD39
:101620009AAD0197F1F79AAF89AFFE01E85BFF4FE2
:101630008081805C0E94C50D80E090E0A0E8BFE35F
:101640008DAB9EABAFABB8AF6DA97EA98FA998AD9E
:1016500020E030E04AEF54E40E941F02DC01CB019D
:1016600089AB9AABABABBCAB69A97AA98BA99CA996
:1016700020E030E040E85FE30E94790388232CF407
:1016800081E090E098AB8FA73FC069A97AA98BA9A8
:101690009CA920E03FEF4FE757E40E94190318167A
:1016A0004CF56DA97EA98FA998AD20E030E040E20D
:1016B00051E40E941F02DC01CB01BC01CD010E945C
:1016C0004900DC01CB0198AB8FA70FC088EC90E0FC
:1016D0009EA78DA78DA59EA50197F1F79EA78DA723
:1016E0008FA598A9019798AB8FA78FA598A9009768
:1016F00069F714C069A97AA98BA99CA90E9449001D
:10170000DC01CB0198AB8FA78FA598A99CA78BA7CD
:101710008BA59CA50197F1F79CA78BA7FE01E95B20
:10172000FF4F10828CC0FE01E95BFF4F8081282FA4
:1017300030E0FE01E75BFF4F80819181FC01E20F09
:10174000F31F80810E94260D80E090E0A0E8BFE3B7
:101750008FA398A7A9A7BAA76FA178A589A59AA5CD
:1017600020E030E04AEF54E40E941F02DC01CB018C
:101770008BA39CA3ADA3BEA36BA17CA18DA19EA1B5
:1017800020E030E040E85FE30E94790388232CF4F6
:1017900081E090E09AA389A33FC06BA17CA18DA1B9
:1017A0009EA120E03FEF4FE757E40E94190318166F
:1017B0004CF56FA178A589A59AA520E030E040E21C
:1017C00051E40E941F02DC01CB01BC01CD010E944B
:1017D0004900DC01CB019AA389A30FC088EC90E0FB
:1017E00098A38F8F8F8D98A10197F1F798A38F8F72
:1017F00089A19AA101979AA389A389A19AA1009787
:1018000069F714C06BA17CA18DA19EA10E94490023
:10181000DC01CB019AA389A389A19AA19E8F8D8F08
:101820008D8D9E8D0197F1F79E8F8D8FDE01A95BC7
:10183000BF4FFE01E95BFF4F80818F5F8C93FE01FC
:10184000E95BFF4F8081883008F46DCFFE01E45BD7
:10185000FF4FDE01A35BBF4F80816C910E948E1011
:1018600080E090E0A0E8BFE3898F9A8FAB8FBC8FB8
:10187000698D7A8D8B8D9C8D20E030E04AEF54E4A9
:101880000E941F02DC01CB018D8B9E8BAF8BB88F2A
:101890006D897E898F89988D20E030E040E85FE394
:1018A0000E94790388232CF481E090E09C8B8B8B41
:1018B0003FC06D897E898F89988D20E03FEF4FE78B
:1018C00057E40E94190318164CF5698D7A8D8B8D9B
:1018D0009C8D20E030E040E251E40E941F02DC01D8
:1018E000CB01BC01CD010E944900DC01CB019C8BE6
:1018F0008B8B0FC088EC90E09A8B898B89899A89B1
:101900000197F1F79A8B898B8B899C8901979C8B26
:101910008B8B8B899C89009769F714C06D897E89B0
:101920008F89988D0E944900DC01CB019C8B8B8BA9
:101930008B899C89988B8F878F8598890197F1F780
:10194000988B8F87FE01E55BFF4F80810E94260DFB
:1019500080E090E0A0E8BFE38B879C87AD87BE87DF
:101960006B857C858D859E8520E030E04AEF54E4D0
:101970000E941F02DC01CB018F839887A987BA8759
:101980006F81788589859A8520E030E040E85FE3C3
:101990000E94790388232CF481E090E09E838D835C
:1019A0003FC06F81788589859A8520E03FEF4FE7BA
:1019B00057E40E94190318164CF56B857C858D85BC
:1019C0009E8520E030E040E251E40E941F02DC01ED
:1019D000CB01BC01CD010E944900DC01CB019E83FB
:1019E0008D830FC088EC90E09C838B838B819C81DE
:1019F0000197F1F79C838B838D819E8101979E8354
:101A00008D838D819E81009769F714C06F817885E1
:101A100089859A850E944900DC01CB019E838D83D4
:101A20008D819E819A83898389819A810197F1F7BB
:101A30009A838983C35BDF4F0FB6F894DEBF0FBE76
:101A4000CDBFCF91DF911F910F910895DF93CF9379
:101A5000CDB7DEB72F970FB6F894DEBF0FBECDBF60
:101A60008F8780E062E041E00E94BD0880E061E095
:101A700040E00E94BD0882E06F850E94110780E06F
:101A800060E041E00E94BD0880E090E0A0E0B0E4AA
:101A90008B879C87AD87BE876B857C858D859E8572
:101AA00020E030E04AEF54E40E941F02DC01CB0149
:101AB0008F839887A987BA876F81788589859A856A
:101AC00020E030E040E85FE30E94790388232CF4B3
:101AD00081E090E09E838D833FC06F81788589850A
:101AE0009A8520E03FEF4FE757E40E94190318164C
:101AF0004CF56B857C858D859E8520E030E040E24D
:101B000051E40E941F02DC01CB01BC01CD010E9407
:101B10004900DC01CB019E838D830FC088EC90E0EF
:101B20009C838B838B819C810197F1F79C838B83B2
:101B30008D819E8101979E838D838D819E810097EB
:101B400069F714C06F81788589859A850E9449005C
:101B5000DC01CB019E838D838D819E819A83898355
:101B600089819A810197F1F79A83898380E060E007
:101B700040E00E94BD0880E02F960FB6F894DEBFCB
:101B80000FBECDBFCF91DF910895DF93CF93CDB737
:101B9000DEB72F970FB6F894DEBF0FBECDBF8F878D
:101BA00080E062E040E00E94BD0880E061E040E04B
:101BB0000E94BD0882E06F850E94110780E060E00E
:101BC00041E00E94BD0880E090E0A0E0B0E48B8797
:101BD0009C87AD87BE876B857C858D859E8520E043
:101BE00030E04AEF54E40E941F02DC01CB018F83F6
:101BF0009887A987BA876F81788589859A8520E03B
:101C000030E040E85FE30E94790388232CF481E010
:101C100090E09E838D833FC06F81788589859A850A
:101C200020E03FEF4FE757E40E94190318164CF5E8
:101C30006B857C858D859E8520E030E040E251E417
:101C40000E941F02DC01CB01BC01CD010E944900B2
:101C5000DC01CB019E838D830FC088EC90E09C83D8
:101C60008B838B819C810197F1F79C838B838D8182
:101C70009E8101979E838D838D819E81009769F758
:101C800014C06F81788589859A850E944900DC019E
:101C9000CB019E838D838D819E819A8389838981E7
:101CA0009A810197F1F79A83898380E060E040E0B0
:101CB0000E94BD0880E02F960FB6F894DEBF0FBEDD
:101CC000CDBFCF91DF910895DF93CF93CDB7DEB72E
:101CD0002E970FB6F894DEBF0FBECDBF82E06FEF38
:101CE0000E94C90680E060E041E00E94AB0780E00E
:101CF00062E041E00E94AB0780E061E041E00E94C9
:101D0000AB0780E090E0A0E2B2E48B879C87AD87D0
:101D1000BE876B857C858D859E8520E030E04AEF0F
:101D200054E40E941F02DC01CB018F839887A987AE
:101D3000BA876F81788589859A8520E030E040E810
:101D40005FE30E94790388232CF481E090E09E8376
:101D50008D833FC06F81788589859A8520E03FEF2C
:101D60004FE757E40E94190318164CF56B857C85E4
:101D70008D859E8520E030E040E251E40E941F0204
:101D8000DC01CB01BC01CD010E944900DC01CB018B
:101D90009E838D830FC088EC90E09C838B838B8126
:101DA0009C810197F1F79C838B838D819E810197A4
:101DB0009E838D838D819E81009769F714C06F810A
:101DC000788589859A850E944900DC01CB019E8334
:101DD0008D838D819E819A83898389819A810197E0
:101DE000F1F79A83898388E30E94C50D8EE00E94F3
:101DF000C50D81E00E94C50D2E960FB6F894DEBF8A
:101E00000FBECDBFCF91DF910895DF93CF93CDB7B4
:101E1000DEB76F970FB6F894DEBF0FBECDBF9F8FB2
:101E20008E8F1D8E83E060E00E948E1080C08D8DAD
:101E3000282F30E08E8D9F8DFC01E20FF31F8081F3
:101E40000E94260D8D8D8F5F8D8F80E090E0A6E142
:101E5000B3E4898F9A8FAB8FBC8F698D7A8D8B8D10
:101E60009C8D20E030E04AEF54E40E941F02DC0128
:101E7000CB018D8B9E8BAF8BB88F6D897E898F89BF
:101E8000988D20E030E040E85FE30E9479038823EA
:101E90002CF481E090E09C8B8B8B3FC06D897E8918
:101EA0008F89988D20E03FEF4FE757E40E94190398
:101EB00018164CF5698D7A8D8B8D9C8D20E030E065
:101EC00040E251E40E941F02DC01CB01BC01CD01C4
:101ED0000E944900DC01CB019C8B8B8B0FC088ECEE
:101EE00090E09A8B898B89899A890197F1F79A8B6F
:101EF000898B8B899C8901979C8B8B8B8B899C8987
:101F0000009769F714C06D897E898F89988D0E942A
:101F10004900DC01CB019C8B8B8B8B899C89988B36
:101F20008F878F8598890197F1F7988B8F878D8D93
:101F3000282F30E08E8D9F8DFC01E20FF31F8081F2
:101F4000882309F074CF0E948D1280E090E0A8EC05
:101F5000B2E48B879C87AD87BE876B857C858D853A
:101F60009E8520E030E04AEF54E40E941F02DC012D
:101F7000CB018F839887A987BA876F8178858985F8
:101F80009A8520E030E040E85FE30E9479038823EF
:101F90002CF481E090E09E838D833FC06F81788533
:101FA00089859A8520E03FEF4FE757E40E941903A7
:101FB00018164CF56B857C858D859E8520E030E07C
:101FC00040E251E40E941F02DC01CB01BC01CD01C3
:101FD0000E944900DC01CB019E838D830FC088ECF9
:101FE00090E09C838B838B819C810197F1F79C838C
:101FF0008B838D819E8101979E838D838D819E81B0
:10200000009769F714C06F81788589859A850E9449
:102010004900DC01CB019E838D838D819E819A8353
:10202000898389819A810197F1F79A8389836F96D1
:102030000FB6F894DEBF0FBECDBFCF91DF910895EC
:10204000DF93CF9300D00F92CDB7DEB79B838A8307
:1020500019820EC08981282F30E08A819B81FC0182
:10206000E20FF31F80810E94260D89818F5F898393
:102070008981282F30E08A819B81FC01E20FF31FC8
:102080008081882339F70F900F900F90CF91DF91C7
:102090000895DF93CF93CDB7DEB727970FB6F894A7
:1020A000DEBF0FBECDBF9C838B836D831A8203C0BE
:1020B0008A818F5F8A838A81282F30E08B819C817F
:1020C000FC01E20FF31F8081882391F78A81282F7A
:1020D00030E080E190E0821B930B9F838E838E81A2
:1020E0009F8199232CF48E819F8101969F838E83FB
:1020F0008E819F8195958795898389816D810E94C5
:102100008E108B819C810E94201027960FB6F89428
:10211000DEBF0FBECDBFCF91DF910895DF93CF9388
:1021200000D00F92CDB7DEB78A836B838B81882373
:1021300019F48A81898306C08B81813019F48A81E0
:10214000805C8983898180580E94C50D0F900F9013
:102150000F90CF91DF910895DF93CF93CDB7DEB786
:1021600081E00E94C50DCF91DF910895DF93CF9359
:10217000CDB7DEB780E00E94C50DCF91DF91089505
:102180000F931F93DF93CF93CDB7DEB7A7970FB60B
:10219000F894DEBF0FBECDBF6CA37DA38EA39FA31B
:1021A0001B828FE061E00E948E108CA19DA1AEA1E8
:1021B000BFA10097A105B10531F480E30E94260D6F
:1021C0000E94B610C5C08CA19DA1AEA1BFA1BB232A
:1021D0000CF099C08CA19DA1AEA1BFA1B095A09516
:1021E000909581959F4FAF4FBF4F8CA39DA3AEA3FA
:1021F000BFA32FC08B81082F112707FD10958CA13D
:102200009DA1AEA1BFA12AE030E040E050E0BC01BA
:10221000CD010E94501FDC01CB01282FCE01049676
:10222000FC01E00FF11F20838CA19DA1AEA1BFA1F5
:102230002AE030E040E050E0BC01CD010E94501F98
:10224000DA01C9018CA39DA3AEA3BFA38B818F5FCD
:102250008B838CA19DA1AEA1BFA10097A105B10563
:1022600049F61A8211C08A81282F30E0CE010496E7
:10227000FC01E20FF31F8081805D0E94260D0E9409
:10228000B6108A818F5F8A838A81282F30E08B8104
:10229000992787FD9095821793072CF78DE20E946E
:1022A000260D0E94B61054C08B818F5F8B838B816B
:1022B000082F112707FD10958CA19DA1AEA1BFA1EC
:1022C0002AE030E040E050E0BC01CD010E94501F08
:1022D000DC01CB01282FCE010496FC01E00FF11F99
:1022E00020838CA19DA1AEA1BFA12AE030E040E0F7
:1022F00050E0BC01CD010E94501FDA01C9018CA33E
:102300009DA3AEA3BFA38CA19DA1AEA1BFA1009729
:10231000A105B10549F6198211C08981282F30E045
:10232000CE010496FC01E20FF31F8081805D0E94C4
:10233000260D0E94B61089818F5F89838981282F9D
:1023400030E08B81992787FD9095821793072CF7B2
:10235000A7960FB6F894DEBF0FBECDBFCF91DF9129
:102360001F910F9108950F931F93DF93CF93CDB7D4
:10237000DEB7A5970FB6F894DEBF0FBECDBF6AA338
:102380007BA38CA39DA319828AA19BA1ACA1BDA113
:102390000097A105B10521F480E30E94260D9BC0A2
:1023A0008AA19BA1ACA1BDA1BB230CF07AC08AA1DC
:1023B0009BA1ACA1BDA1B095A095909581959F4F93
:1023C000AF4FBF4F8AA39BA3ACA3BDA38DE20E94D6
:1023D000260D2FC08981082F112707FD10958AA18E
:1023E0009BA1ACA1BDA12AE030E040E050E0BC01DF
:1023F000CD010E94501FDC01CB01282FCE01029697
:10240000FC01E00FF11F20838AA19BA1ACA1BDA11B
:102410002AE030E040E050E0BC01CD010E94501FB6
:10242000DA01C9018AA39BA3ACA3BDA389818F5FF5
:1024300089838AA19BA1ACA1BDA10097A105B1058B
:1024400049F649C089818F5F89838981082F1127C7
:1024500007FD10958AA19BA1ACA1BDA12AE030E0A7
:1024600040E050E0BC01CD010E94501FDC01CB01D7
:10247000282FCE010296FC01E00FF11F20838AA1D4
:102480009BA1ACA1BDA12AE030E040E050E0BC013E
:10249000CD010E94501FDA01C9018AA39BA3ACA3FE
:1024A000BDA38AA19BA1ACA1BDA10097A105B105C7
:1024B00049F611C08981282F332727FD3095CE0199
:1024C0000296FC01E20FF31F8081805D0E94260DC1
:1024D0008981815089838981181664F3A5960FB686
:1024E000F894DEBF0FBECDBFCF91DF911F910F914A
:1024F0000895DF93CF93CDB7DEB781E00E94C50D7D
:10250000CF91DF910895DF93CF93CDB7DEB782E00F
:102510000E94C50DCF91DF910895DF93CF93CDB782
:10252000DEB78CE10E94C50DCF91DF910895DF9356
:10253000CF93CDB7DEB788E10E94C50DCF91DF9173
:102540000895DF93CF93CDB7DEB763970FB6F894B6
:10255000DEBF0FBECDBF9B8B8A8B198A82E0888B32
:102560001F868FC08989823028F0888960E00E94A8
:102570008E1004C0888961E00E948E108989282FFE
:1025800030E08A899B89FC01E20FF31F80810E9461
:10259000260D89898F5F898B88898F5F888B80E082
:1025A00090E0A6E1B3E48B879C87AD87BE876B85FF
:1025B0007C858D859E8520E030E04AEF54E40E94C2
:1025C0001F02DC01CB018F839887A987BA876F81AF
:1025D000788589859A8520E030E040E85FE30E94B5
:1025E000790388232CF481E090E09E838D833FC0A3
:1025F0006F81788589859A8520E03FEF4FE757E422
:102600000E94190318164CF56B857C858D859E8577
:1026100020E030E040E251E40E941F02DC01CB01E7
:10262000BC01CD010E944900DC01CB019E838D835A
:102630000FC088EC90E09C838B838B819C810197F9
:10264000F1F79C838B838D819E8101979E838D837F
:102650008D819E81009769F714C06F817885898587
:102660009A850E944900DC01CB019E838D838D8178
:102670009E819A83898389819A810197F1F79A8350
:1026800089838989282F30E08A899B89FC01E20FA0
:10269000F31F8081882321F08F858A3008F462CF70
:1026A00063960FB6F894DEBF0FBECDBFCF91DF911A
:1026B00008950F931F93DF93CF93CDB7DEB7C65521
:1026C000D0400FB6F894DEBF0FBECDBFFE01EB5A6F
:1026D000FF4F91838083FE01EB5AFF4F80819181F0
:1026E00060E00E944910FE01EF5AFF4F80E090E049
:1026F000A8E4B2E480839183A283B3838E01035B59
:102700001F4FFE01EF5AFF4F6081718182819381DB
:1027100020E030E04AEF54E40E941F02DC01CB01CC
:10272000F80180839183A283B383FE01E35BFF4FB3
:10273000608171818281938120E030E040E85FE335
:102740000E947903882344F4FE01E55BFF4F81E09A
:1027500090E09183808364C0FE01E35BFF4F608162
:1027600071818281938120E03FEF4FE757E40E941F
:10277000190318160CF043C0FE01EF5AFF4F608199
:1027800071818281938120E030E040E251E40E9437
:102790001F02DC01CB018E01055B1F4FBC01CD0187
:1027A0000E944900DC01CB01F801918380831FC0A6
:1027B000FE01E75BFF4F88EC90E091838083FE0190
:1027C000E75BFF4F808191810197F1F7FE01E75BA5
:1027D000FF4F91838083DE01A55BBF4FFE01E55B68
:1027E000FF4F80819181019711969C938E93FE01FA
:1027F000E55BFF4F808191810097D1F627C08E0164
:10280000055B1F4FFE01E35BFF4F60817181828199
:1028100093810E944900DC01CB01F8019183808300
:10282000DE01A95BBF4FFE01E55BFF4F8081918117
:102830008D939C93FE01E95BFF4F8081918101970D
:10284000F1F7FE01E95BFF4F918380830E949712AD
:10285000FE01ED5BFF4F80E090E0A8E4B2E48083EE
:102860009183A283B3838E01015C1F4FFE01ED5B58
:10287000FF4F608171818281938120E030E04AEFD7
:1028800054E40E941F02DC01CB01F8018083918394
:10289000A283B383FE01FF9660817181828193815F
:1028A00020E030E040E85FE30E94790388232CF4C5
:1028B00081E090E09EAF8DAF46C0FE01FF96608143
:1028C00071818281938120E03FEF4FE757E40E94BE
:1028D0001903181664F5FE01ED5BFF4F60817181ED
:1028E0008281938120E030E040E251E40E941F02A7
:1028F000DC01CB01BC01CD010E944900DC01CB0110
:102900009EAF8DAF0FC088EC90E09CAF8BAF8BADCE
:102910009CAD0197F1F79CAF8BAF8DAD9EAD01974C
:102920009EAF8DAF8DAD9EAD009769F716C0FE01CD
:10293000FF9660817181828193810E944900DC0150
:10294000CB019EAF8DAF8DAD9EAD9AAF89AF89ADF6
:102950009AAD0197F1F79AAF89AF0E948D1280E08E
:1029600090E0A8E4B2E48DAB9EABAFABB8AF6DA97D
:102970007EA98FA998AD20E030E04AEF54E40E9490
:102980001F02DC01CB0189AB9AABABABBCAB69A935
:102990007AA98BA99CA920E030E040E85FE30E947F
:1029A000790388232CF481E090E098AB8FA73FC097
:1029B00069A97AA98BA99CA920E03FEF4FE757E4CA
:1029C0000E94190318164CF56DA97EA98FA998AD20
:1029D00020E030E040E251E40E941F02DC01CB0124
:1029E000BC01CD010E944900DC01CB0198AB8FA74F
:1029F0000FC088EC90E09EA78DA78DA59EA501979E
:102A0000F1F79EA78DA78FA598A9019798AB8FA7DF
:102A10008FA598A9009769F714C069A97AA98BA90D
:102A20009CA90E944900DC01CB0198AB8FA78FA520
:102A300098A99CA78BA78BA59CA50197F1F79CA7AC
:102A40008BA70E947912FE01EB5AFF4F8081918182
:102A500061E00E9449100E948D1280E090E0A8E49D
:102A6000B2E48FA398A7A9A7BAA76FA178A589A553
:102A70009AA520E030E04AEF54E40E941F02DC01F6
:102A8000CB018BA39CA3ADA3BEA36BA17CA18DA105
:102A90009EA120E030E040E85FE30E9479038823B4
:102AA0002CF481E090E09AA389A33FC06BA17CA1A4
:102AB0008DA19EA120E03FEF4FE757E40E9419034C
:102AC00018164CF56FA178A589A59AA520E030E0ED
:102AD00040E251E40E941F02DC01CB01BC01CD01A8
:102AE0000E944900DC01CB019AA389A30FC088ECA6
:102AF00090E098A38F8F8F8D98A10197F1F798A3FD
:102B00008F8F89A19AA101979AA389A389A19AA1DC
:102B1000009769F714C06BA17CA18DA19EA10E94B2
:102B20004900DC01CB019AA389A389A19AA19E8FB8
:102B30008D8F8D8D9E8D0197F1F79E8F8D8F0E94C9
:102B40008D1280E090E0A8E4B2E4898F9A8FAB8F79
:102B5000BC8F698D7A8D8B8D9C8D20E030E04AEFA3
:102B600054E40E941F02DC01CB018D8B9E8BAF8B46
:102B7000B88F6D897E898F89988D20E030E040E89C
:102B80005FE30E94790388232CF481E090E09C8B22
:102B90008B8B3FC06D897E898F89988D20E03FEFB8
:102BA0004FE757E40E94190318164CF5698D7A8D8A
:102BB0008B8D9C8D20E030E040E251E40E941F02AA
:102BC000DC01CB01BC01CD010E944900DC01CB013D
:102BD0009C8B8B8B0FC088EC90E09A8B898B8989BA
:102BE0009A890197F1F79A8B898B8B899C89019738
:102BF0009C8B8B8B8B899C89009769F714C06D899E
:102C00007E898F89988D0E944900DC01CB019C8BC5
:102C10008B8B8B899C89988B8F878F85988901975F
:102C2000F1F7988B8F870E947912FE01EB5AFF4FC4
:102C30008081918160E00E9449100E94971280E09B
:102C400090E0A8E4B2E48B879C87AD87BE876B8554
:102C50007C858D859E8520E030E04AEF54E40E941B
:102C60001F02DC01CB018F839887A987BA876F8108
:102C7000788589859A8520E030E040E85FE30E940E
:102C8000790388232CF481E090E09E838D833FC0FC
:102C90006F81788589859A8520E03FEF4FE757E47B
:102CA0000E94190318164CF56B857C858D859E85D1
:102CB00020E030E040E251E40E941F02DC01CB0141
:102CC000BC01CD010E944900DC01CB019E838D83B4
:102CD0000FC088EC90E09C838B838B819C81019753
:102CE000F1F79C838B838D819E8101979E838D83D9
:102CF0008D819E81009769F714C06F8178858985E1
:102D00009A850E944900DC01CB019E838D838D81D1
:102D10009E819A83898389819A810197F1F79A83A9
:102D200089830E948D12CA5ADF4F0FB6F894DEBF16
:102D30000FBECDBFCF91DF911F910F910895DF930B
:102D4000CF93CDB7DEB783E060E040E00E94AB07F1
:102D500083E061E040E00E94AB0783E062E040E096
:102D60000E94AB0783E063E040E00E94AB0783E092
:102D700064E041E00E94AB0783E065E041E00E942F
:102D8000AB0783E066E041E00E94AB0783E067E0C9
:102D900041E00E94AB0783E060E041E00E94BD0893
:102DA00083E061E041E00E94BD0883E062E041E031
:102DB0000E94BD0883E063E041E00E94BD0883E01B
:102DC00064E041E00E94BD0883E065E041E00E94CC
:102DD000BD0883E066E041E00E94BD0883E067E053
:102DE00041E00E94BD08CF91DF910895DF93CF931A
:102DF000CDB7DEB7A0970FB6F894DEBF0FBECDBF3C
:102E00008FEF8F8F84E08E8F27C183E06E8D40E03F
:102E10000E94BD081D8E14C19E01205E3F4F83E0BD
:102E20006D8DA9010E94CF0988A1882309F005C1F1
:102E30008D8D482F50E08E8D882F90E09C0124507E
:102E40003040CA01880F991F880F991F820F931F66
:102E5000FC01E151FE4F80818F8F80E090E0A0EA7D
:102E6000B0E4898F9A8FAB8FBC8F698D7A8D8B8DF3
:102E70009C8D20E030E04AEF54E40E941F02DC0108
:102E8000CB018D8B9E8BAF8BB88F6D897E898F899F
:102E9000988D20E030E040E85FE30E9479038823CA
:102EA0002CF481E090E09C8B8B8B3FC06D897E89F8
:102EB0008F89988D20E03FEF4FE757E40E94190378
:102EC00018164CF5698D7A8D8B8D9C8D20E030E045
:102ED00040E251E40E941F02DC01CB01BC01CD01A4
:102EE0000E944900DC01CB019C8B8B8B0FC088ECCE
:102EF00090E09A8B898B89899A890197F1F79A8B4F
:102F0000898B8B899C8901979C8B8B8B8B899C8966
:102F1000009769F71DC06D897E898F89988D0E9401
:102F20004900DC01CB019C8B8B8B8B899C89988B16
:102F30008F878F8598890197F1F7988B8F8708C0C5
:102F40009E01205E3F4F83E06D8DA9010E94CF0955
:102F500088A18823A9F380E090E0A0EAB0E48B8701
:102F60009C87AD87BE876B857C858D859E8520E09F
:102F700030E04AEF54E40E941F02DC01CB018F8352
:102F80009887A987BA876F81788589859A8520E097
:102F900030E040E85FE30E94790388232CF481E06D
:102FA00090E09E838D833FC06F81788589859A8567
:102FB00020E03FEF4FE757E40E94190318164CF545
:102FC0006B857C858D859E8520E030E040E251E474
:102FD0000E941F02DC01CB01BC01CD010E9449000F
:102FE000DC01CB019E838D830FC088EC90E09C8335
:102FF0008B838B819C810197F1F79C838B838D81DF
:103000009E8101979E838D838D819E81009769F7B4
:1030100014C06F81788589859A850E944900DC01FA
:10302000CB019E838D838D819E819A838983898143
:103030009A810197F1F79A8389838D8D8F5F8D8FA8
:103040008D8D843008F4E8CE83E06E8D41E00E94DF
:10305000BD088E8D8F5F8E8F8E8D883008F4D5CE13
:103060008F8DA0960FB6F894DEBF0FBECDBFCF9167
:10307000DF910895DF93CF93CDB7DEB781E061E0B4
:1030800041E00E94AB0781E060E041E00E94AB07B5
:1030900081E061E040E00E94BD0881E060E040E046
:1030A0000E94BD08CF91DF910895DF93CF93CDB7F4
:1030B000DEB72F970FB6F894DEBF0FBECDBF8F8758
:1030C00081E061E040E00E94BD0881E060E041E015
:1030D0000E94BD088F85282F30E088EE93E0AC0178
:1030E000249FC001259F900D349F900D1124AA2785
:1030F00097FDA095BA2FBC01CD010E94A903DC0168
:10310000CB018B879C87AD87BE876B857C858D8542
:103110009E8520E030E04AEF54E40E941F02DC016B
:10312000CB018F839887A987BA876F817885898536
:103130009A8520E030E040E85FE30E94790388232D
:103140002CF481E090E09E838D833FC06F81788571
:1031500089859A8520E03FEF4FE757E40E941903E5
:1031600018164CF56B857C858D859E8520E030E0BA
:1031700040E251E40E941F02DC01CB01BC01CD0101
:103180000E944900DC01CB019E838D830FC088EC37
:1031900090E09C838B838B819C810197F1F79C83CA
:1031A0008B838D819E8101979E838D838D819E81EE
:1031B000009769F714C06F81788589859A850E9488
:1031C0004900DC01CB019E838D838D819E819A8392
:1031D000898389819A810197F1F79A83898381E0B4
:1031E00061E040E00E94BD0881E060E040E00E94B4
:1031F000BD082F960FB6F894DEBF0FBECDBFCF919E
:10320000DF910895DF93CF93CDB7DEB72F970FB639
:10321000F894DEBF0FBECDBF8F8781E060E040E055
:103220000E94BD0881E061E041E00E94BD088F85F9
:10323000282F30E088EE93E0AC01249FC001259F49
:10324000900D349F900D1124AA2797FDA095BA2FB9
:10325000BC01CD010E94A903DC01CB018B879C87B7
:10326000AD87BE876B857C858D859E8520E030E0AF
:103270004AEF54E40E941F02DC01CB018F83988740
:10328000A987BA876F81788589859A8520E030E0A3
:1032900040E85FE30E94790388232CF481E090E00A
:1032A0009E838D833FC06F81788589859A8520E0D4
:1032B0003FEF4FE757E40E94190318164CF56B8552
:1032C0007C858D859E8520E030E040E251E40E94BF
:1032D0001F02DC01CB01BC01CD010E944900DC01D1
:1032E000CB019E838D830FC088EC90E09C838B8301
:1032F0008B819C810197F1F79C838B838D819E81CB
:1033000001979E838D838D819E81009769F714C0FC
:103310006F81788589859A850E944900DC01CB01FF
:103320009E838D838D819E819A83898389819A81F1
:103330000197F1F79A83898381E061E040E00E9480
:10334000BD0881E060E040E00E94BD082F960FB606
:10335000F894DEBF0FBECDBFCF91DF910895DF930C
:10336000CF93CDB7DEB781E064E041E00E94AB07C8
:1033700081E064E040E00E94BD08CF91DF910895B4
:10338000DF93CF93CDB7DEB72F970FB6F894DEBF9C
:103390000FBECDBF8F8781E064E041E00E94BD0891
:1033A0008F85282F30E088EE93E0AC01249FC00188
:1033B000259F900D349F900D1124AA2797FDA0956D
:1033C000BA2FBC01CD010E94A903DC01CB018B8780
:1033D0009C87AD87BE876B857C858D859E8520E02B
:1033E00030E04AEF54E40E941F02DC01CB018F83DE
:1033F0009887A987BA876F81788589859A8520E023
:1034000030E040E85FE30E94790388232CF481E0F8
:1034100090E09E838D833FC06F81788589859A85F2
:1034200020E03FEF4FE757E40E94190318164CF5D0
:103430006B857C858D859E8520E030E040E251E4FF
:103440000E941F02DC01CB01BC01CD010E9449009A
:10345000DC01CB019E838D830FC088EC90E09C83C0
:103460008B838B819C810197F1F79C838B838D816A
:103470009E8101979E838D838D819E81009769F740
:1034800014C06F81788589859A850E944900DC0186
:10349000CB019E838D838D819E819A8389838981CF
:1034A0009A810197F1F79A83898381E064E040E093
:1034B0000E94BD082F960FB6F894DEBF0FBECDBF99
:1034C000CF91DF910895DF93CF93CDB7DEB7A0976B
:1034D0000FB6F894DEBF0FBECDBF8F8F68A31E8ED0
:1034E0001D8E01C181E064E041E00E94BD0888A119
:1034F000882F90E0A0E0B0E0BC01CD010E945B0409
:10350000DC01CB01898F9A8FAB8FBC8F698D7A8D4F
:103510008B8D9C8D20E030E04AEF54E40E941F0226
:10352000DC01CB018D8B9E8BAF8BB88F6D897E8933
:103530008F89988D20E030E040E85FE30E947903B6
:1035400088232CF481E090E09C8B8B8B3FC06D89AD
:103550007E898F89988D20E03FEF4FE757E40E94E6
:10356000190318164CF5698D7A8D8B8D9C8D20E092
:1035700030E040E251E40E941F02DC01CB01BC01BB
:10358000CD010E944900DC01CB019C8B8B8B0FC0CD
:1035900088EC90E09A8B898B89899A890197F1F759
:1035A0009A8B898B8B899C8901979C8B8B8B8B89C0
:1035B0009C89009769F714C06D897E898F89988DE1
:1035C0000E944900DC01CB019C8B8B8B8B899C89F1
:1035D000988B8F878F8598890197F1F7988B8F87C4
:1035E00081E064E040E00E94BD0888A1882F90E05F
:1035F000A0E0B0E0BC01CD010E945B04DC01CB0186
:103600008B879C87AD87BE876B857C858D859E85E6
:1036100020E030E04AEF54E40E941F02DC01CB01BD
:103620008F839887A987BA876F81788589859A85DE
:1036300020E030E040E85FE30E94790388232CF427
:1036400081E090E09E838D833FC06F81788589857E
:103650009A8520E03FEF4FE757E40E9419031816C0
:103660004CF56B857C858D859E8520E030E040E2C1
:1036700051E40E941F02DC01CB01BC01CD010E947C
:103680004900DC01CB019E838D830FC088EC90E064
:103690009C838B838B819C810197F1F79C838B8327
:1036A0008D819E8101979E838D838D819E81009760
:1036B00069F714C06F81788589859A850E944900D1
:1036C000DC01CB019E838D838D819E819A838983CA
:1036D00089819A810197F1F79A8389838D8D9E8DD7
:1036E00001969E8F8D8F8F8D282F30E088EE93E08E
:1036F000289FA001299F500D389F500D112488A1AB
:10370000882F90E09C01220F331FCA01B9010E944B
:103710003D1FCB019C018D8D9E8D8217930708F470
:10372000E1CEA0960FB6F894DEBF0FBECDBFCF910D
:10373000DF910895DF93CF93CDB7DEB70E94640E7B
:103740000E949F160E94AF190E943A1881E062E021
:1037500041E00E94AB0781E063E041E00E94AB07DB
:1037600081E062E041E00E94BD0881E063E040E06A
:103770000E94BD08CF91DF9108950F931F93DF93AF
:10378000CF93CDB7DEB762970FB6F894DEBF0FBE0A
:10379000CDBF1AC00E94F6160E94F6168A30A0F419
:1037A0008AE20E94260D80910202082F112707FD50
:1037B00010950E94F616F801E85FFD4F8083809116
:1037C00002028F5F809302020E94F6168D3321F071
:1037D000809102028430F4F20E94F6168D33E1F7F4
:1037E0000E94F6168D3309F0BDC081E090E09A8BFF
:1037F000898B3DC080910202992787FD90950197A2
:10380000FC01E85FFD4F8081282F30E089899A898B
:10381000A901489F9001499F300D589F300D1124F8
:103820008091030290910402820F931F90930402EF
:103830008093030280910202992787FD909501975A
:10384000FC01E85FFD4F108280910202815080935D
:10385000020289899A899C01220F331FC901880FAE
:10386000991F880F991F820F931F9A8B898B8091C4
:10387000020218160CF4BECF0E94791280E690E086
:1038800060E070E00E94491086E061E00E948E10C6
:103890001AC00E94F6160E94F6168A30A0F48AE238
:1038A0000E94260D80910202082F112707FD109516
:1038B0000E94F616F801E85FFD4F808380910202B6
:1038C0008F5F809302020E94F6168D3321F0809163
:1038D00002028430F4F281E090E0988B8F873DC043
:1038E00080910202992787FD90950197FC01E85F7E
:1038F000FD4F8081282F30E08F859889A901489F4E
:103900009001499F300D589F300D11248091050280
:1039100090910602820F931F9093060280930502F6
:1039200080910202992787FD90950197FC01E85F3D
:10393000FD4F1082809102028150809302028F8598
:1039400098899C01220F331FC901880F991F880F86
:10395000991F820F931F988B8F87809102021816F0
:103960000CF4BECF20910302309104028091050235
:10397000909106022817390709F076C081E790E098
:103980000E94491080E090E0AAE7B4E48B879C870E
:10399000AD87BE876B857C858D859E8520E030E078
:1039A0004AEF54E40E941F02DC01CB018F83988709
:1039B000A987BA876F81788589859A8520E030E06C
:1039C00040E85FE30E94790388232CF481E090E0D3
:1039D0009E838D833FC06F81788589859A8520E09D
:1039E0003FEF4FE757E40E94190318164CF56B851B
:1039F0007C858D859E8520E030E040E251E40E9488
:103A00001F02DC01CB01BC01CD010E944900DC0199
:103A1000CB019E838D830FC088EC90E09C838B83C9
:103A20008B819C810197F1F79C838B838D819E8193
:103A300001979E838D838D819E81009769F714C0C5
:103A40006F81788589859A850E944900DC01CB01C8
:103A50009E838D838D819E819A83898389819A81BA
:103A60000197F1F79A83898362960FB6F894DEBFC7
:103A70000FBECDBFCF91DF911F910F910895DF93BE
:103A8000CF93CDB7DEB70E94791285E890E060E071
:103A900070E00E94491081E062E040E00E94BD08B1
:103AA00081E063E041E00E94BD0882E00E94551879
:103AB000CF91DF910895DF93CF93CDB7DEB70E940A
:103AC00079128DE890E060E070E00E94491081E09A
:103AD00062E041E00E94BD0881E063E040E00E94B6
:103AE000BD0882E00E940219CF91DF9108950F93E3
:103AF0001F93DF93CF93CDB7DEB76E970FB6F894D1
:103B0000DEBF0FBECDBF0E9479128DE990E060E06C
:103B100070E00E94491086E061E00E948E101AC099
:103B20000E94F6160E94F6168A30A0F48AE20E94DD
:103B3000260D80910202082F112707FD10950E9483
:103B4000F616F801E85FFD4F8083809102028F5FD7
:103B5000809302020E94F6168D3321F080910202BA
:103B60008430F4F20E94F6168D33E1F70E94F616C7
:103B70008D3309F047C081E090E09E8F8D8F3DC06E
:103B800080910202992787FD90950197FC01E85FDB
:103B9000FD4F8081282F30E08D8D9E8DA901489F9B
:103BA0009001499F300D589F300D112480910302E0
:103BB00090910402820F931F90930402809303025A
:103BC00080910202992787FD90950197FC01E85F9B
:103BD000FD4F1082809102028150809302028D8DF0
:103BE0009E8D9C01220F331FC901880F991F880FDA
:103BF000991F820F931F9E8F8D8F8091020218163E
:103C00000CF4BECF20910302309104028091FF0199
:103C10009091000228173907C9F40E943F1D0E94A5
:103C2000F6168336E1F70E94F6168F32C1F70E942E
:103C3000F6168F3219F40E94BD1B65CF0E94F6164E
:103C4000833609F060CF0E945B1D5DCF2091030297
:103C5000309104028091FF019091000228173907EA
:103C600009F451CF80910702833008F080C08DEABB
:103C700090E00E94591380E090E0AAE7B4E4898FB5
:103C80009A8FAB8FBC8F698D7A8D8B8D9C8D20E048
:103C900030E04AEF54E40E941F02DC01CB018D8B1F
:103CA0009E8BAF8BB88F6D897E898F89988D20E030
:103CB00030E040E85FE30E94790388232CF481E040
:103CC00090E09C8B8B8B3FC06D897E898F89988D0E
:103CD00020E03FEF4FE757E40E94190318164CF518
:103CE000698D7A8D8B8D9C8D20E030E040E251E42F
:103CF0000E941F02DC01CB01BC01CD010E944900E2
:103D0000DC01CB019C8B8B8B0FC088EC90E09A8BF5
:103D1000898B89899A890197F1F79A8B898B8B898D
:103D20009C8901979C8B8B8B8B899C89009769F769
:103D300014C06D897E898F89988D0E944900DC01AD
:103D4000CB019C8B8B8B8B899C89988B8F878F85E4
:103D500098890197F1F7988B8F878DEB90E00E94FF
:103D60004910809107028F5F80930702CCCE87ECC9
:103D700090E00E94591380E090E0AAEFB4E48B87B2
:103D80009C87AD87BE876B857C858D859E8520E071
:103D900030E04AEF54E40E941F02DC01CB018F8324
:103DA0009887A987BA876F81788589859A8520E069
:103DB00030E040E85FE30E94790388232CF481E03F
:103DC00090E09E838D833FC06F81788589859A8539
:103DD00020E03FEF4FE757E40E94190318164CF517
:103DE0006B857C858D859E8520E030E040E251E446
:103DF0000E941F02DC01CB01BC01CD010E944900E1
:103E0000DC01CB019E838D830FC088EC90E09C8306
:103E10008B838B819C810197F1F79C838B838D81B0
:103E20009E8101979E838D838D819E81009769F786
:103E300014C06F81788589859A850E944900DC01CC
:103E4000CB019E838D838D819E819A838983898115
:103E50009A810197F1F79A83898388ED90E00E9417
:103E60005913FFCFDF93CF93CDB7DEB70E949A1BD4
:103E70000E94771DCF91DF91089597FB092E0726A9
:103E80000AD077FD04D027D006D000201AF4709510
:103E900061957F4F0895F6F7909581959F4F08950E
:103EA00097FB092E05260ED057FD04D028D00AD046
:103EB000001C38F450954095309521953F4F4F4F59
:103EC0005F4F0895F6F790958095709561957F4FB7
:103ED0008F4F9F4F0895AA1BBB1B51E107C0AA1F1C
:103EE000BB1FA617B70710F0A61BB70B881F991F9B
:103EF0005A95A9F780959095BC01CD010895A1E24E
:103F00001A2EAA1BBB1BFD010DC0AA1FBB1FEE1F53
:103F1000FF1FA217B307E407F50720F0A21BB30B9E
:103F2000E40BF50B661F771F881F991F1A9469F71A
:103F300060957095809590959B01AC01BD01CF0176
:103F400008952F923F924F925F926F927F928F923D
:103F50009F92AF92BF92CF92DF92EF92FF920F9318
:103F60001F93CF93DF93CDB7DEB7CA1BDB0B0FB622
:103F7000F894DEBF0FBECDBF09942A8839884888DF
:103F80005F846E847D848C849B84AA84B984C88475
:103F9000DF80EE80FD800C811B81AA81B981CE0F6C
:103FA000D11D0FB6F894DEBF0FBECDBFED01089551
:043FB000F894FFCFB3
:103FB4005265456E746572206E6577207061737307
:103FC4000050617373776F72642773206368616E46
:103FD400676564210057454C434F4D4500436C6F62
:103FE40073696E672073797374656D2100456E740F
:103FF40065722050617373776F7264210057726F1A
:104004006E672070617373776F72642100547279E4
:1040140020616761696E00546F6F206D756368205D
:10402400747269616C73210053797374656D204CEB
:104034006F636B6564210000000000000000000055
:104044000102020303030304040404040404040536
:10405400050505050505050505050505050505060B
:1040640006060606060606060606060606060606EC
:1040740006060606060606060606060606060607DB
:1040840007070707070707070707070707070707BC
:1040940007070707070707070707070707070707AC
:1040A400070707070707070707070707070707079C
:1040B400070707070707070707070707070707088B
:1040C400080808080808080808080808080808086C
:1040D400080808080808080808080808080808085C
:1040E400080808080808080808080808080808084C
:1040F400080808080808080808080808080808083C
:10410400080808080808080808080808080808082B
:10411400080808080808080808080808080808081B
:10412400080808080808080808080808080808080B
:1041340008080808080808080808080808080807FC
:1041440008092B0405062D0102032A63003D2FD222
:02415400040065
:00000001FF
